{
  "_format": "hh-sol-artifact-1",
  "contractName": "LoanGovernanceToken",
  "sourceName": "contracts/LoanGovernanceToken.sol",
  "abi": [
    {
      "inputs": [
        {
          "internalType": "address",
          "name": "initialOwner",
          "type": "address"
        }
      ],
      "stateMutability": "nonpayable",
      "type": "constructor"
    },
    {
      "inputs": [
        {
          "internalType": "address",
          "name": "spender",
          "type": "address"
        },
        {
          "internalType": "uint256",
          "name": "allowance",
          "type": "uint256"
        },
        {
          "internalType": "uint256",
          "name": "needed",
          "type": "uint256"
        }
      ],
      "name": "ERC20InsufficientAllowance",
      "type": "error"
    },
    {
      "inputs": [
        {
          "internalType": "address",
          "name": "sender",
          "type": "address"
        },
        {
          "internalType": "uint256",
          "name": "balance",
          "type": "uint256"
        },
        {
          "internalType": "uint256",
          "name": "needed",
          "type": "uint256"
        }
      ],
      "name": "ERC20InsufficientBalance",
      "type": "error"
    },
    {
      "inputs": [
        {
          "internalType": "address",
          "name": "approver",
          "type": "address"
        }
      ],
      "name": "ERC20InvalidApprover",
      "type": "error"
    },
    {
      "inputs": [
        {
          "internalType": "address",
          "name": "receiver",
          "type": "address"
        }
      ],
      "name": "ERC20InvalidReceiver",
      "type": "error"
    },
    {
      "inputs": [
        {
          "internalType": "address",
          "name": "sender",
          "type": "address"
        }
      ],
      "name": "ERC20InvalidSender",
      "type": "error"
    },
    {
      "inputs": [
        {
          "internalType": "address",
          "name": "spender",
          "type": "address"
        }
      ],
      "name": "ERC20InvalidSpender",
      "type": "error"
    },
    {
      "inputs": [
        {
          "internalType": "address",
          "name": "owner",
          "type": "address"
        }
      ],
      "name": "OwnableInvalidOwner",
      "type": "error"
    },
    {
      "inputs": [
        {
          "internalType": "address",
          "name": "account",
          "type": "address"
        }
      ],
      "name": "OwnableUnauthorizedAccount",
      "type": "error"
    },
    {
      "anonymous": false,
      "inputs": [
        {
          "indexed": true,
          "internalType": "address",
          "name": "owner",
          "type": "address"
        },
        {
          "indexed": true,
          "internalType": "address",
          "name": "spender",
          "type": "address"
        },
        {
          "indexed": false,
          "internalType": "uint256",
          "name": "value",
          "type": "uint256"
        }
      ],
      "name": "Approval",
      "type": "event"
    },
    {
      "anonymous": false,
      "inputs": [
        {
          "indexed": true,
          "internalType": "address",
          "name": "previousOwner",
          "type": "address"
        },
        {
          "indexed": true,
          "internalType": "address",
          "name": "newOwner",
          "type": "address"
        }
      ],
      "name": "OwnershipTransferred",
      "type": "event"
    },
    {
      "anonymous": false,
      "inputs": [
        {
          "indexed": true,
          "internalType": "address",
          "name": "from",
          "type": "address"
        },
        {
          "indexed": true,
          "internalType": "address",
          "name": "to",
          "type": "address"
        },
        {
          "indexed": false,
          "internalType": "uint256",
          "name": "value",
          "type": "uint256"
        }
      ],
      "name": "Transfer",
      "type": "event"
    },
    {
      "inputs": [
        {
          "internalType": "address",
          "name": "owner",
          "type": "address"
        },
        {
          "internalType": "address",
          "name": "spender",
          "type": "address"
        }
      ],
      "name": "allowance",
      "outputs": [
        {
          "internalType": "uint256",
          "name": "",
          "type": "uint256"
        }
      ],
      "stateMutability": "view",
      "type": "function"
    },
    {
      "inputs": [
        {
          "internalType": "address",
          "name": "spender",
          "type": "address"
        },
        {
          "internalType": "uint256",
          "name": "value",
          "type": "uint256"
        }
      ],
      "name": "approve",
      "outputs": [
        {
          "internalType": "bool",
          "name": "",
          "type": "bool"
        }
      ],
      "stateMutability": "nonpayable",
      "type": "function"
    },
    {
      "inputs": [
        {
          "internalType": "address",
          "name": "account",
          "type": "address"
        }
      ],
      "name": "balanceOf",
      "outputs": [
        {
          "internalType": "uint256",
          "name": "",
          "type": "uint256"
        }
      ],
      "stateMutability": "view",
      "type": "function"
    },
    {
      "inputs": [],
      "name": "decimals",
      "outputs": [
        {
          "internalType": "uint8",
          "name": "",
          "type": "uint8"
        }
      ],
      "stateMutability": "view",
      "type": "function"
    },
    {
      "inputs": [
        {
          "internalType": "address",
          "name": "to",
          "type": "address"
        },
        {
          "internalType": "uint256",
          "name": "amount",
          "type": "uint256"
        }
      ],
      "name": "mint",
      "outputs": [],
      "stateMutability": "nonpayable",
      "type": "function"
    },
    {
      "inputs": [],
      "name": "name",
      "outputs": [
        {
          "internalType": "string",
          "name": "",
          "type": "string"
        }
      ],
      "stateMutability": "view",
      "type": "function"
    },
    {
      "inputs": [],
      "name": "owner",
      "outputs": [
        {
          "internalType": "address",
          "name": "",
          "type": "address"
        }
      ],
      "stateMutability": "view",
      "type": "function"
    },
    {
      "inputs": [],
      "name": "renounceOwnership",
      "outputs": [],
      "stateMutability": "nonpayable",
      "type": "function"
    },
    {
      "inputs": [],
      "name": "symbol",
      "outputs": [
        {
          "internalType": "string",
          "name": "",
          "type": "string"
        }
      ],
      "stateMutability": "view",
      "type": "function"
    },
    {
      "inputs": [],
      "name": "totalSupply",
      "outputs": [
        {
          "internalType": "uint256",
          "name": "",
          "type": "uint256"
        }
      ],
      "stateMutability": "view",
      "type": "function"
    },
    {
      "inputs": [
        {
          "internalType": "address",
          "name": "to",
          "type": "address"
        },
        {
          "internalType": "uint256",
          "name": "value",
          "type": "uint256"
        }
      ],
      "name": "transfer",
      "outputs": [
        {
          "internalType": "bool",
          "name": "",
          "type": "bool"
        }
      ],
      "stateMutability": "nonpayable",
      "type": "function"
    },
    {
      "inputs": [
        {
          "internalType": "address",
          "name": "from",
          "type": "address"
        },
        {
          "internalType": "address",
          "name": "to",
          "type": "address"
        },
        {
          "internalType": "uint256",
          "name": "value",
          "type": "uint256"
        }
      ],
      "name": "transferFrom",
      "outputs": [
        {
          "internalType": "bool",
          "name": "",
          "type": "bool"
        }
      ],
      "stateMutability": "nonpayable",
      "type": "function"
    },
    {
      "inputs": [
        {
          "internalType": "address",
          "name": "newOwner",
          "type": "address"
        }
      ],
      "name": "transferOwnership",
      "outputs": [],
      "stateMutability": "nonpayable",
      "type": "function"
    }
  ],
  "bytecode": "0x608034620003af576001600160401b03601f601f1962000c77388190038381018316860185811187821017620003b457869282916040528339602095869181010312620003af57516001600160a01b03948582169491859003620003af5762000067620003ca565b601781527f535065784c6f616e476f7665726e616e6365546f6b656e000000000000000000828201526200009a620003ca565b946004958681526314d311d560e21b84820152825193858511620002b5576003948554946001958681811c91168015620003a4575b848210146200038f5790818684931162000339575b508390868311600114620002d657600092620002ca575b505060001982881b1c191690851b1785555b8151958611620002b55787548481811c91168015620002aa575b8282101462000295578381116200024a575b5080928611600114620001de575084955090849291600095620001d2575b50501b92600019911b1c19161781555b8115620001ba5750600580546001600160a01b03198116831790915560405192167f8be0079c531659141344cd1fd0a4f28419497f9722a3daafe3b4186f6b6457e0600080a361088c9081620003eb8239f35b602490600060405191631e4fbdf760e01b8352820152fd5b01519350388062000157565b939295859081168860005285600020956000905b898383106200022f575050501062000214575b50505050811b01815562000167565b01519060f884600019921b161c191690553880808062000205565b858701518955909701969485019488935090810190620001f2565b88600052816000208480890160051c820192848a106200028b575b0160051c019085905b8281106200027e57505062000139565b600081550185906200026e565b9250819262000265565b602289634e487b7160e01b6000525260246000fd5b90607f169062000127565b604188634e487b7160e01b6000525260246000fd5b015190503880620000fb565b908a8894169189600052856000209260005b8782821062000322575050841162000309575b505050811b0185556200010d565b0151600019838a1b60f8161c19169055388080620002fb565b8385015186558b97909501949384019301620002e8565b90915087600052836000208680850160051c82019286861062000385575b918991869594930160051c01915b82811062000375575050620000e4565b6000815585945089910162000365565b9250819262000357565b60228b634e487b7160e01b6000525260246000fd5b90607f1690620000cf565b600080fd5b634e487b7160e01b600052604160045260246000fd5b60408051919082016001600160401b03811183821017620003b45760405256fe6080604081815260048036101561001557600080fd5b600092833560e01c90816306fdde03146105c457508063095ea7b31461051b57806318160ddd146104fc57806323b872dd14610413578063313ce567146103f757806340c10f191461035a57806370a0823114610323578063715018a6146102d55780638da5cb5b146102ac57806395d89b41146101aa578063a9059cbb14610179578063dd62ed3e1461012c5763f2fde38b146100b257600080fd5b34610128576020366003190112610128576100cb6106e4565b906100d4610715565b6001600160a01b03918216928315610112575050600580546001600160a01b031981168417909155166000805160206108178339815191528380a380f35b51631e4fbdf760e01b8152908101849052602490fd5b8280fd5b5050346101755780600319360112610175578060209261014a6106e4565b6101526106ff565b6001600160a01b0391821683526001865283832091168252845220549051908152f35b5080fd5b5050346101755780600319360112610175576020906101a36101996106e4565b6024359033610741565b5160018152f35b50919034610175578160031936011261017557805190828454600181811c908083169283156102a2575b602093848410811461028f57838852908115610273575060011461023b575b505050829003601f01601f19168201926001600160401b03841183851017610228575082918261022492528261069b565b0390f35b634e487b7160e01b815260418552602490fd5b919250868652828620918387935b83851061025f57505050508301013880806101f3565b805488860183015293019284908201610249565b60ff1916878501525050151560051b84010190503880806101f3565b634e487b7160e01b895260228a52602489fd5b91607f16916101d4565b50503461017557816003193601126101755760055490516001600160a01b039091168152602090f35b83346103205780600319360112610320576102ee610715565b600580546001600160a01b0319811690915581906001600160a01b03166000805160206108178339815191528280a380f35b80fd5b5050346101755760203660031901126101755760209181906001600160a01b0361034b6106e4565b16815280845220549051908152f35b5090346101285780600319360112610128576103746106e4565b9060243591610381610715565b6001600160a01b03169283156103e257600254908382018092116103cf575084926000805160206108378339815191529260209260025585855284835280852082815401905551908152a380f35b634e487b7160e01b865260119052602485fd5b84602492519163ec442f0560e01b8352820152fd5b5050346101755781600319360112610175576020905160128152f35b5082346103205760603660031901126103205761042e6106e4565b6104366106ff565b916044359360018060a01b038316808352600160205286832033845260205286832054916000198303610472575b6020886101a3898989610741565b8683106104da5781156104c35733156104ac575082526001602090815286832033845281529186902090859003905582906101a387610464565b8751634a1406b160e11b8152908101849052602490fd5b875163e602df0560e01b8152908101849052602490fd5b90506104f8868851938493637dc7a0d960e11b8552339085016107f8565b0390fd5b5050346101755781600319360112610175576020906002549051908152f35b50346101285781600319360112610128576105346106e4565b6024359033156105ad576001600160a01b031691821561059657508083602095338152600187528181208582528752205582519081527f8c5be1e5ebec7d5bd14f71427d1e84f3dd0314c0f7b2291e5b200ac8c7c3b925843392a35160018152f35b8351634a1406b160e11b8152908101859052602490fd5b835163e602df0560e01b8152808401869052602490fd5b849150833461012857826003193601126101285782600354600181811c90808316928315610691575b602093848410811461028f57838852908115610675575060011461063c57505050829003601f01601f19168201926001600160401b03841183851017610228575082918261022492528261069b565b91925060038652828620918387935b83851061066157505050508301018580806101f3565b80548886018301529301928490820161064b565b60ff1916878501525050151560051b84010190508580806101f3565b91607f16916105ed565b6020808252825181830181905290939260005b8281106106d057505060409293506000838284010152601f8019910116010190565b8181018601518482016040015285016106ae565b600435906001600160a01b03821682036106fa57565b600080fd5b602435906001600160a01b03821682036106fa57565b6005546001600160a01b0316330361072957565b60405163118cdaa760e01b8152336004820152602490fd5b916001600160a01b038084169283156107df57169283156107c657600090838252816020526040822054908382106107a957509160408282600080516020610837833981519152958760209652828652038282205586815220818154019055604051908152a3565b6104f88460405193849363391434e360e21b8552600485016107f8565b60405163ec442f0560e01b815260006004820152602490fd5b604051634b637e8f60e11b815260006004820152602490fd5b604091949392606082019560018060a01b031682526020820152015256fe8be0079c531659141344cd1fd0a4f28419497f9722a3daafe3b4186f6b6457e0ddf252ad1be2c89b69c2b068fc378daa952ba7f163c4a11628f55a4df523b3efa26469706673582212209bc17a0d8a6edaa82e3bfdb59e87268a5a6b447198410b46df7f24df2118b2e964736f6c63430008140033",
  "linkReferences": {},
  "deployedLinkReferences": {}
}