{
  "_format": "hh-sol-artifact-1",
  "contractName": "Common",
  "sourceName": "contracts/utils/Common.sol",
  "abi": [
    {
      "inputs": [
        {
          "internalType": "UD60x18",
          "name": "x",
          "type": "uint256"
        }
      ],
      "name": "PRBMath_UD60x18_Exp2_InputTooBig",
      "type": "error"
    },
    {
      "inputs": [
        {
          "internalType": "UD60x18",
          "name": "x",
          "type": "uint256"
        }
      ],
      "name": "PRBMath_UD60x18_Exp_InputTooBig",
      "type": "error"
    },
    {
      "inputs": [
        {
          "internalType": "uint256",
          "name": "loanAmount",
          "type": "uint256"
        },
        {
          "internalType": "uint256",
          "name": "startTimestamp",
          "type": "uint256"
        },
        {
          "internalType": "uint256",
          "name": "endTimestamp",
          "type": "uint256"
        },
        {
          "internalType": "uint256",
          "name": "annualRate",
          "type": "uint256"
        },
        {
          "internalType": "uint256",
          "name": "rateBase",
          "type": "uint256"
        }
      ],
      "name": "calculatePrincipalAndInterest",
      "outputs": [
        {
          "internalType": "uint256",
          "name": "",
          "type": "uint256"
        }
      ],
      "stateMutability": "pure",
      "type": "function"
    }
  ],
  "bytecode": "0x6080806040523461001a5761094a9081610020823930815050f35b600080fdfe6080604052600436101561001257600080fd5b60003560e01c638c9856b81461002757600080fd5b60a036600319011261005457602061004c608435606435604435602435600435610082565b604051908152f35b600080fd5b8181029291811591840414171561006c57565b634e487b7160e01b600052601160045260246000fd5b92918181039181831161006c57841591821561090a575b505061090357906100a991610059565b91670de0b6b3a7640000928381029080820485149015171561006c576301e13380918083029283040361006c5781156108ed5704680736ea4425c11ac63081116108d5576714057b7ef767814f83910204680a688906bd8affffff81116108bd576101839190604090811b84900484600160bf1b60ff60381b83166107cc575b60ff60301b83166106dc575b60ff60281b83166105ec575b60ff60201b83166104fc575b63ff000000831661040c575b62ff00008316610325575b61ff00831661024e575b60ff8316610187575b02911c60bf031c610059565b0490565b6080831661023e575b83831661022e575b6020831661021e575b6010831661020e575b600883166101fe575b600483166101ee575b600283166101de575b6001831615610177576001600160401b0102831c610177565b6001600160401b0102831c6101c5565b6003600160401b0102831c6101bc565b6006600160401b0102831c6101b3565b600b600160401b0102831c6101aa565b6016600160401b0102831c6101a1565b602c600160401b0102831c610198565b6059600160401b0102831c610190565b6180008316610314575b6140008316610303575b61200083166102f2575b61100083166102e1575b61080083166102d0575b61040083166102bf575b61020083166102ae575b61010083161561016e5760b1600160401b0102831c61016e565b610163600160401b0102831c610294565b6102c6600160401b0102831c61028a565b61058c600160401b0102831c610280565b610b17600160401b0102831c610276565b61162e600160401b0102831c61026c565b612c5d600160401b0102831c610262565b6158b9600160401b0102831c610258565b6280000083166103fa575b6240000083166103e8575b6220000083166103d6575b6210000083166103c4575b6208000083166103b2575b6204000083166103a0575b62020000831661038e575b620100008316156101645761b172600160401b0102831c610164565b680100000000000162e402831c610372565b6801000000000002c5c802831c610367565b68010000000000058b9102831c61035c565b680100000000000b172102831c610351565b68010000000000162e4302831c610346565b680100000000002c5c8602831c61033b565b6801000000000058b90c02831c610330565b638000000083166104ea575b634000000083166104d8575b632000000083166104c6575b631000000083166104b4575b630800000083166104a2575b63040000008316610490575b6302000000831661047e575b63010000008316156101595768010000000000b1721802831c610159565b6801000000000162e43002831c610460565b68010000000002c5c86002831c610454565b680100000000058b90c002831c610448565b6801000000000b17217f02831c61043c565b680100000000162e42ff02831c610430565b6801000000002c5c85fe02831c610424565b68010000000058b90bfc02831c610418565b600160271b83166105da575b600160261b83166105c8575b600160251b83166105b6575b600160241b83166105a4575b600160231b8316610592575b600160221b8316610580575b600160211b831661056e575b600160201b83161561014d57680100000000b17217f802831c61014d565b68010000000162e42ff102831c610550565b680100000002c5c85fe302831c610544565b6801000000058b90bfce02831c610538565b68010000000b17217fbb02831c61052c565b6801000000162e42fff002831c610520565b68010000002c5c8601cc02831c610514565b680100000058b90c0b4902831c610508565b6001602f1b83166106ca575b6001602e1b83166106b8575b6001602d1b83166106a6575b6001602c1b8316610694575b6001602b1b8316610682575b6001602a1b8316610670575b600160291b831661065e575b600160281b831615610141576801000000b17218355102831c610141565b680100000162e430e5a202831c610640565b6801000002c5c863b73f02831c610634565b68010000058b90cf1e6e02831c610628565b680100000b1721bcfc9a02831c61061c565b68010000162e43f4f83102831c610610565b680100002c5c89d5ec6d02831c610604565b6801000058b91b5bc9ae02831c6105f8565b600160371b83166107ba575b600160361b83166107a8575b600160351b8316610796575b600160341b8316610784575b600160331b8316610772575b600160321b8316610760575b600160311b831661074e575b600160301b8316156101355768010000b17255775c0402831c610135565b6801000162e525ee054702831c610730565b68010002c5cc37da949202831c610724565b680100058ba01fb9f96d02831c610718565b6801000b175effdc76ba02831c61070c565b680100162f3904051fa102831c610700565b6801002c605e2e8cec5002831c6106f4565b68010058c86da1c09ea202831c6106e8565b6001603f1b83166108aa575b6001603e1b8316610898575b6001603d1b8316610886575b6001603c1b8316610874575b6001603b1b8316610862575b6001603a1b8316610850575b600160391b831661083e575b600160381b83161561012957680100b1afa5abcbed6102831c610129565b68010163da9fb33356d802831c610820565b680102c9a3e778060ee702831c610814565b6801059b0d31585743ae02831c610808565b68010b5586cf9890f62a02831c6107fc565b6801172b83c7d517adce02831c6107f0565b6801306fe0a31b7152df02831c6107e4565b5068016a09e667f3bcc909607f1b6107d8565b6024906040519063b3b6ba1f60e01b82526004820152fd5b60249060405190630d7b1d6560e11b82526004820152fd5b634e487b7160e01b600052601260045260246000fd5b5050905090565b149050388061009956fea26469706673582212202c485d727d9ab4fa30a41f8f4e44d2ad36a983a361dd7cfebe759ec767c6aeb264736f6c63430008140033",
  "linkReferences": {},
  "deployedLinkReferences": {}
}