{
  "_format": "hh-sol-artifact-1",
  "contractName": "LoanOwner",
  "sourceName": "contracts/LoanOwner.sol",
  "abi": [
    {
      "inputs": [
        {
          "internalType": "int256",
          "name": "errorCode",
          "type": "int256"
        }
      ],
      "name": "ActorError",
      "type": "error"
    },
    {
      "inputs": [],
      "name": "ActorNotFound",
      "type": "error"
    },
    {
      "inputs": [],
      "name": "FailToCallActor",
      "type": "error"
    },
    {
      "inputs": [
        {
          "internalType": "CommonTypes.FilActorId",
          "name": "actorId",
          "type": "uint64"
        }
      ],
      "name": "InvalidActorID",
      "type": "error"
    },
    {
      "inputs": [
        {
          "internalType": "uint64",
          "name": "",
          "type": "uint64"
        }
      ],
      "name": "InvalidCodec",
      "type": "error"
    },
    {
      "inputs": [],
      "name": "InvalidResponseLength",
      "type": "error"
    },
    {
      "inputs": [
        {
          "internalType": "uint256",
          "name": "balance",
          "type": "uint256"
        },
        {
          "internalType": "uint256",
          "name": "value",
          "type": "uint256"
        }
      ],
      "name": "NotEnoughBalance",
      "type": "error"
    },
    {
      "inputs": [],
      "name": "REQUIRED_EXPIRATION",
      "outputs": [
        {
          "internalType": "int64",
          "name": "",
          "type": "int64"
        }
      ],
      "stateMutability": "view",
      "type": "function"
    },
    {
      "inputs": [],
      "name": "REQUIRED_QUOTA",
      "outputs": [
        {
          "internalType": "uint256",
          "name": "",
          "type": "uint256"
        }
      ],
      "stateMutability": "view",
      "type": "function"
    },
    {
      "inputs": [
        {
          "internalType": "CommonTypes.FilActorId",
          "name": "minerId",
          "type": "uint64"
        }
      ],
      "name": "confirmTransferMinerIntoSPex",
      "outputs": [],
      "stateMutability": "nonpayable",
      "type": "function"
    },
    {
      "inputs": [
        {
          "internalType": "CommonTypes.FilActorId",
          "name": "minerId",
          "type": "uint64"
        },
        {
          "components": [
            {
              "internalType": "bytes",
              "name": "data",
              "type": "bytes"
            }
          ],
          "internalType": "struct CommonTypes.FilAddress",
          "name": "newOwner",
          "type": "tuple"
        }
      ],
      "name": "transferOwnerOut",
      "outputs": [],
      "stateMutability": "nonpayable",
      "type": "function"
    }
  ],
  "bytecode": "0x608080604052346100165761132c908161001c8239f35b600080fdfe6080604052600436101561001257600080fd5b6000803560e01c9081630d5631561461007a5781637ca0e6f01461005557508063bb273e3b146100505763df8dfe4d1461004b57600080fd5b610204565b610156565b3461007757806003193601126100775760405160016001603f1b038152602090f35b80fd5b346100775780600319360112610077577c03b58e88c75313ec9d329eaaa18fb92f75215b170ff21f494c589c000060805260206080f35b6001600160401b038116036100c257565b600080fd5b634e487b7160e01b600052604160045260246000fd5b602081019081106001600160401b038211176100f857604052565b6100c7565b604081019081106001600160401b038211176100f857604052565b601f909101601f19168101906001600160401b038211908210176100f857604052565b6001600160401b0381116100f857601f01601f191660200190565b346100c2576003196040368201126100c25760043590610175826100b1565b602435906001600160401b03908183116100c25760209083360301126100c257604051916101a2836100dd565b80600401359182116100c2570191366023840112156100c25760048301356101c98161013b565b906101d76040519283610118565b80825236602482870101116100c25760208160009260246102029801838601378301015282526103a1565b005b346100c25760203660031901126100c25760ff600435610223816100b1565b61022b610320565b50600461023f610239610357565b836104e5565b610247610320565b9061025181610a44565b949196909616036102db57610202946020936102829161027c906001600160401b03166002146104c8565b8261087b565b8351919091526102aa607b60f91b6001600160f81b03196102a384866107dc565b5116141590565b156102c7576102b89161087b565b5082820151525b0151906103a1565b50506102d1610357565b82820151526102bf565b60405162461bcd60e51b815260206004820152601f60248201527f696e76616c6964206d616a20286578706563746564204d616a417272617929006044820152606490fd5b6040519061032d826100fd565b8160405161033a816100dd565b60608152815260206040519161034f836100dd565b606083520152565b604051610363816100dd565b60008152906000368137565b906103798261013b565b6103866040519182610118565b8281528092610397601f199161013b565b0190602036910137565b815151916103ae83610d3c565b9283018093116104c35761042f92610423610429926000604051936103d2856100fd565b6103ee6103dd610d7c565b918287526020870192848452610da5565b50525180516001600160401b03811690601782116104485761041a9150604060ff8651921617906110cc565b505b8251610e39565b50610df7565b9061058b565b5161043657565b604051630e74990760e01b8152600490fd5b5060ff811161046d576104679061045f8551611067565b508451611289565b5061041c565b61ffff811161048c57610467906104848551611002565b50845161121b565b63ffffffff81116104ad57610467906104a58551610f9d565b5084516111ab565b610467906104bb8551610f2d565b508451611137565b610803565b156104cf57565b634e487b7160e01b600052600160045260246000fd5b6001600160401b0381166064811061057357506005607f60991b01803f156105615760009261052361053185946040519283916020830195866105ec565b03601f198101835282610118565b51915af461053d61068e565b901561054f5761054c90610733565b90565b604051638a7db5bf60e01b8152600490fd5b60405163064d954b60e41b8152600490fd5b6024906040519063a292827360e01b82526004820152fd5b6001600160401b0381166064811061057357506005607f60991b01803f15610561576000926105236105318594604051928391602083019586610649565b60005b8381106105dc5750506000910152565b81810151838201526020016105cc565b9060e060a09194939463c33a1cc6845260006020850152600160408501526000606085015260c06080850152610631815180928160c0880152602085880191016105c9565b601f80199101168301019360018060401b0316910152565b9060e060a091949394633c3c5e9b845260006020850152600060408501526051606085015260c06080850152610631815180928160c0880152602085880191016105c9565b3d156106b9573d9061069f8261013b565b916106ad6040519384610118565b82523d6000602084013e565b606090565b90916060828403126100c25781519260208301516106db816100b1565b604084015190936001600160401b0382116100c2570181601f820112156100c25780516107078161013b565b926107156040519485610118565b818452602082840101116100c25761054c91602080850191016105c9565b61074690602080825183010191016106be565b91906001600160401b038116806107835750508151610436575b80610769575090565b60405163d4bb667160e01b81526004810191909152602490fd5b605181149081156107d1575b50156107ae5750815161076057604051630e74990760e01b8152600490fd5b60405163f1f6bced60e01b81526001600160401b03919091166004820152602490fd5b60719150143861078f565b9081518110156107ed570160200190565b634e487b7160e01b600052603260045260246000fd5b634e487b7160e01b600052601160045260246000fd5b90600182018092116104c357565b90600282018092116104c357565b90600482018092116104c357565b90600882018092116104c357565b90602082018092116104c357565b919082018092116104c357565b60001981146104c35760010190565b9161088860009284610af4565b908160ff60018060401b03809316941660068114809181156109a4575b501561094857610921575b50506108bc828261085f565b6108c58361036f565b948083915b8383106108e1575050505061054c9293945061085f565b61091561091b916109036108f5868d6107dc565b516001600160f81b03191690565b841a61090f828c6107dc565b5361086c565b9261086c565b916108ca565b60ff935061094191925061093760029188610af4565b94169416146104c8565b38806108b0565b60405162461bcd60e51b815260206004820152602e60248201527f696e76616c6964206d616a20286578706563746564204d616a546167206f722060448201526d4d616a42797465537472696e672960901b6064820152608490fd5b6002915014386108a5565b156109b657565b60405162461bcd60e51b815260206004820152602560248201527f63616e6e6f742068616e646c6520686561646572732077697468206578747261604482015264203e20323760d81b6064820152608490fd5b15610a1057565b60405162461bcd60e51b815260206004820152600c60248201526b34b73b30b634b21031b137b960a11b6044820152606490fd5b90610a4e82610c10565b91601f60078460051c169316610a66601c82106109af565b60188110610aed5760188114610acb5760198114610ab757601a8114610aa15790610a96601b610a9b93146104c8565b610cfc565b90600990565b50610ab063ffffffff91610cbc565b1690600590565b50610ac461ffff91610c7c565b1690600390565b50610ad760ff91610c2f565b1691610ae66018841015610a09565b9190600290565b9160019150565b9091610b09610b038484610c51565b93610819565b91601f60078560051c169416610b21601c82106109af565b60188110610bc75760188114610ba257908160198596959314610b8b57601a8114610b6b5791610b5f91610b5a601b610b6595146104c8565b610d15565b93610843565b91929190565b50610b7e63ffffffff92610b8492610cd5565b94610835565b9293169190565b50610b9c61ffff92610b8492610c95565b94610827565b50610bb2610b038460ff93610c51565b921692610bc26018851015610a09565b929190565b92919050565b15610bd457565b60405162461bcd60e51b8152602060048201526014602482015273736c6963696e67206f7574206f662072616e676560601b6044820152606490fd5b610c1e600182511015610bcd565b8051156107ed576020015160f81c90565b610c3d600282511015610bcd565b8051600110156107ed576021015160f81c90565b9081519160018201928383116104c357610c7593610c70911015610bcd565b6107dc565b5160f81c90565b602190610c8d600382511015610bcd565b015160f01c90565b9081519160028201928383116104c357602093610cb3911015610bcd565b01015160f01c90565b602190610ccd600582511015610bcd565b015160e01c90565b9081519160048201928383116104c357602093610cf3911015610bcd565b01015160e01c90565b602190610d0d600982511015610bcd565b015160c01c90565b9081519160088201928383116104c357602093610d33911015610bcd565b01015160c01c90565b60178111610d4a5750600190565b60ff8111610d585750600290565b61ffff8111610d675750600390565b63ffffffff1015610d7757600990565b600590565b60405190610d89826100fd565b6000602083606081520152565b601f198101919082116104c357565b90610dae610d7c565b50601f811680610ddd575b50806020830152604051908183526000825281016020019081106100c25760405290565b602003602081116104c35781018091116104c35738610db9565b6020810151610e0557515190565b60405162461bcd60e51b815260206004820152600c60248201526b24b73b30b634b21021a127a960a11b6044820152606490fd5b90610e42610d7c565b508051610e4d610d7c565b50610e5b8251821115610ef6565b82515191610e69828461085f565b6020918291828701518111610edf575b865183815197820101968211610ed7575b505001915b81811015610eb15760001991036101000a019081199051169082511617905290565b9192610ecc610ec6610ed29286518152610851565b94610851565b92610d96565b610e8f565b523880610e8a565b610ef1610eeb82610efd565b88610f13565b610e79565b156100c257565b908160011b91808304600214901517156104c357565b90610f2a91610f2481519282610da5565b50610e39565b50565b610f35610d7c565b5080515160018101908181116104c3576020830151811015610f6e575b605b60208451928301015380518211610f6a57505090565b5290565b8160011b828104600214831517156104c357610f9790610f9085519186610da5565b5084610e39565b50610f52565b610fa5610d7c565b5080515160018101908181116104c3576020830151811015610fda575b605a60208451928301015380518211610f6a57505090565b8160011b828104600214831517156104c357610ffc90610f9085519186610da5565b50610fc2565b61100a610d7c565b5080515160018101908181116104c357602083015181101561103f575b605960208451928301015380518211610f6a57505090565b8160011b828104600214831517156104c35761106190610f9085519186610da5565b50611027565b61106f610d7c565b5080515160018101908181116104c35760208301518110156110a4575b605860208451928301015380518211610f6a57505090565b8160011b828104600214831517156104c3576110c690610f9085519186610da5565b5061108c565b906110d5610d7c565b5081515160018101918282116104c3576020840151821015611108575b60208451928301015380518211610f6a57505090565b8260011b838104600214841517156104c3576111319061112a86519187610da5565b5085610e39565b506110f2565b90611140610d7c565b508151518060080191826008116104c35760208401518311611183575b835191820160080180516001600160401b031916909117905280518211610f6a57505090565b8260011b838104600214841517156104c3576111a59061112a86519187610da5565b5061115d565b906111b4610d7c565b508151518060040191826004116104c357602084015183116111f3575b60048451928301019063ffffffff1982511617905280518211610f6a57505090565b8260011b838104600214841517156104c3576112159061112a86519187610da5565b506111d1565b90611224610d7c565b508151518060020191826002116104c35760208401518311611261575b60028451928301019061ffff1982511617905280518211610f6a57505090565b8260011b838104600214841517156104c3576112839061112a86519187610da5565b50611241565b90611292610d7c565b508151518060010191826001116104c357602084015183116112ce575b60018451928301019060ff1982511617905280518211610f6a57505090565b8260011b838104600214841517156104c3576112f09061112a86519187610da5565b506112af56fea2646970667358221220551432b9f81024ad23fb39f38c75887e9f019bf26b7cf469058b648cef95066764736f6c63430008140033",
  "linkReferences": {},
  "deployedLinkReferences": {}
}