{
  "_format": "hh-sol-artifact-1",
  "contractName": "Loan",
  "sourceName": "contracts/LoanV2.sol",
  "abi": [
    {
      "inputs": [
        {
          "internalType": "int256",
          "name": "errorCode",
          "type": "int256"
        }
      ],
      "name": "ActorError",
      "type": "error"
    },
    {
      "inputs": [],
      "name": "ActorNotFound",
      "type": "error"
    },
    {
      "inputs": [],
      "name": "FailToCallActor",
      "type": "error"
    },
    {
      "inputs": [
        {
          "internalType": "CommonTypes.FilActorId",
          "name": "actorId",
          "type": "uint64"
        }
      ],
      "name": "InvalidActorID",
      "type": "error"
    },
    {
      "inputs": [
        {
          "internalType": "uint64",
          "name": "",
          "type": "uint64"
        }
      ],
      "name": "InvalidCodec",
      "type": "error"
    },
    {
      "inputs": [],
      "name": "InvalidInitialization",
      "type": "error"
    },
    {
      "inputs": [],
      "name": "InvalidResponseLength",
      "type": "error"
    },
    {
      "inputs": [
        {
          "internalType": "uint256",
          "name": "balance",
          "type": "uint256"
        },
        {
          "internalType": "uint256",
          "name": "value",
          "type": "uint256"
        }
      ],
      "name": "NotEnoughBalance",
      "type": "error"
    },
    {
      "inputs": [],
      "name": "NotInitializing",
      "type": "error"
    },
    {
      "inputs": [
        {
          "internalType": "address",
          "name": "owner",
          "type": "address"
        }
      ],
      "name": "OwnableInvalidOwner",
      "type": "error"
    },
    {
      "inputs": [
        {
          "internalType": "address",
          "name": "account",
          "type": "address"
        }
      ],
      "name": "OwnableUnauthorizedAccount",
      "type": "error"
    },
    {
      "anonymous": false,
      "inputs": [
        {
          "indexed": false,
          "internalType": "uint64",
          "name": "version",
          "type": "uint64"
        }
      ],
      "name": "Initialized",
      "type": "event"
    },
    {
      "anonymous": false,
      "inputs": [
        {
          "indexed": true,
          "internalType": "address",
          "name": "previousOwner",
          "type": "address"
        },
        {
          "indexed": true,
          "internalType": "address",
          "name": "newOwner",
          "type": "address"
        }
      ],
      "name": "OwnershipTransferred",
      "type": "event"
    },
    {
      "inputs": [],
      "name": "REQUIRED_EXPIRATION",
      "outputs": [
        {
          "internalType": "int64",
          "name": "",
          "type": "int64"
        }
      ],
      "stateMutability": "view",
      "type": "function"
    },
    {
      "inputs": [],
      "name": "REQUIRED_QUOTA",
      "outputs": [
        {
          "internalType": "uint256",
          "name": "",
          "type": "uint256"
        }
      ],
      "stateMutability": "view",
      "type": "function"
    },
    {
      "inputs": [],
      "name": "VERSION",
      "outputs": [
        {
          "internalType": "uint8",
          "name": "",
          "type": "uint8"
        }
      ],
      "stateMutability": "view",
      "type": "function"
    },
    {
      "inputs": [],
      "name": "_governanace_token",
      "outputs": [
        {
          "internalType": "contract LoanGovernanceToken",
          "name": "",
          "type": "address"
        }
      ],
      "stateMutability": "view",
      "type": "function"
    },
    {
      "inputs": [
        {
          "internalType": "CommonTypes.FilActorId",
          "name": "minerId",
          "type": "uint64"
        }
      ],
      "name": "confirmTransferMinerIntoSPex",
      "outputs": [],
      "stateMutability": "nonpayable",
      "type": "function"
    },
    {
      "inputs": [
        {
          "internalType": "address",
          "name": "governanace_token",
          "type": "address"
        }
      ],
      "name": "initialize",
      "outputs": [],
      "stateMutability": "nonpayable",
      "type": "function"
    },
    {
      "inputs": [],
      "name": "owner",
      "outputs": [
        {
          "internalType": "address",
          "name": "",
          "type": "address"
        }
      ],
      "stateMutability": "view",
      "type": "function"
    },
    {
      "inputs": [
        {
          "internalType": "CommonTypes.FilActorId",
          "name": "minerId",
          "type": "uint64"
        }
      ],
      "name": "pledgeBeneficiary",
      "outputs": [],
      "stateMutability": "nonpayable",
      "type": "function"
    },
    {
      "inputs": [
        {
          "internalType": "CommonTypes.FilActorId",
          "name": "minerId",
          "type": "uint64"
        }
      ],
      "name": "releaseBeneficiary",
      "outputs": [],
      "stateMutability": "nonpayable",
      "type": "function"
    },
    {
      "inputs": [],
      "name": "renounceOwnership",
      "outputs": [],
      "stateMutability": "nonpayable",
      "type": "function"
    },
    {
      "inputs": [
        {
          "internalType": "CommonTypes.FilActorId",
          "name": "minerId",
          "type": "uint64"
        },
        {
          "components": [
            {
              "internalType": "bytes",
              "name": "data",
              "type": "bytes"
            }
          ],
          "internalType": "struct CommonTypes.FilAddress",
          "name": "newOwner",
          "type": "tuple"
        }
      ],
      "name": "transferOwnerOut",
      "outputs": [],
      "stateMutability": "nonpayable",
      "type": "function"
    },
    {
      "inputs": [
        {
          "internalType": "address",
          "name": "newOwner",
          "type": "address"
        }
      ],
      "name": "transferOwnership",
      "outputs": [],
      "stateMutability": "nonpayable",
      "type": "function"
    }
  ],
  "bytecode": "0x608080604052346100165761287a908161001c8239f35b600080fdfe6080604052600436101561001257600080fd5b60003560e01c806301d394d8146100d75780630d563156146100d25780631e1459ec146100cd578063715018a6146100c85780637ca0e6f0146100c35780638da5cb5b146100be578063bb273e3b146100b9578063c4d66de8146100b4578063df8dfe4d146100af578063f2fde38b146100aa578063f75fcdb7146100a55763ffa1ad74146100a057600080fd5b610773565b61070b565b610693565b610660565b610505565b610437565b610320565b6102fd565b6102a1565b610278565b610240565b6100f2565b6001600160401b038116036100ed57565b600080fd5b346100ed576020806003193601126100ed5761022990600435610114816100dc565b61022461012082610cb6565b6101f48482019161015b7c03b58e88c75313ec9d329eaaa18fb92f75215b170ff21f494c589c00006101558886510151611c00565b146107c8565b61019161017661017060408651015160070b90565b60070b90565b600781900b60016001603f1b0314908161022b575b50610804565b61019a85610981565b515160405190816101ae8982019283610892565b03916101c2601f19938481018352826103dd565b51902091515151906101eb60405191826101df8b82019586610892565b039081018352826103dd565b519020146108a6565b519283519361020b60408383015192015160070b90565b91610214610400565b95865285015260070b6040840152565b610aa8565b005b436001600160401b039091161190503861018b565b346100ed5760003660031901126100ed5760206040517c03b58e88c75313ec9d329eaaa18fb92f75215b170ff21f494c589c00008152f35b346100ed5760003660031901126100ed576000546040516001600160a01b039091168152602090f35b346100ed576000806003193601126102fa576102bb61078f565b6000805160206127e583398151915280546001600160a01b0319811690915581906001600160a01b03166000805160206128058339815191528280a380f35b80fd5b346100ed5760003660031901126100ed5760405160016001603f1b038152602090f35b346100ed5760003660031901126100ed576000805160206127e5833981519152546040516001600160a01b039091168152602090f35b634e487b7160e01b600052604160045260246000fd5b602081019081106001600160401b0382111761038757604052565b610356565b604081019081106001600160401b0382111761038757604052565b60a081019081106001600160401b0382111761038757604052565b606081019081106001600160401b0382111761038757604052565b601f909101601f19168101906001600160401b0382119082101761038757604052565b6040519061040d826103c2565b565b6040519061040d8261038c565b6001600160401b03811161038757601f01601f191660200190565b346100ed576003196040368201126100ed5760043590610456826100dc565b602435906001600160401b03908183116100ed5760209083360301126100ed57604051916104838361036c565b80600401359182116100ed570191366023840112156100ed5760048301356104aa8161041c565b906104b860405192836103dd565b80825236602482870101116100ed576020816000926024610229980183860137830101528252611b49565b60209060031901126100ed576004356001600160a01b03811681036100ed5790565b346100ed57610513366104e3565b60008051602061282583398151915254604081901c60ff161591906001600160401b031680159081610658575b600114908161064e575b159081610645575b506106335760008051602061282583398151915280546001600160401b03191660011790556105a290826105f157600080546001600160a01b0319166001600160a01b0392909216919091179055565b6105a857005b600080516020612825833981519152805460ff60401b19169055604051600181527fc7f505b2f371ae2175ee4913f4499e1f2633a7b5936321eed1cdaeb6115181d290602090a1005b600080516020612825833981519152805460ff60401b1916600160401b179055600080546001600160a01b0319166001600160a01b0392909216919091179055565b60405163f92ee8a960e01b8152600490fd5b90501538610552565b303b15915061054a565b839150610540565b346100ed5760203660031901126100ed57610229600435610680816100dc565b602061068b82610981565b015190611b49565b346100ed576106a1366104e3565b6106a961078f565b6001600160a01b039081169081156106f2576000805160206127e583398151915280546001600160a01b03198116841790915516600080516020612805833981519152600080a3005b604051631e4fbdf760e01b815260006004820152602490fd5b346100ed5760203660031901126100ed5761022960043561072b816100dc565b61073481610981565b51906040516107428161038c565b61074a611054565b81526000602082015260405192610760846103c2565b8352602083015260006040830152610aa8565b346100ed5760003660031901126100ed57602060405160028152f35b6000805160206127e5833981519152546001600160a01b031633036107b057565b60405163118cdaa760e01b8152336004820152602490fd5b156107cf57565b60405162461bcd60e51b815260206004820152600d60248201526c496e76616c69642071756f746160981b6044820152606490fd5b1561080b57565b60405162461bcd60e51b8152602060048201526017602482015276496e76616c69642065787069726174696f6e2074696d6560481b6044820152606490fd5b60005b83811061085d5750506000910152565b818101518382015260200161084d565b906020916108868151809281855285808601910161084a565b601f01601f1916010190565b9060206108a392818152019061086d565b90565b156108ad57565b60405162461bcd60e51b81526020600482015260186024820152772132b732b334b1b4b0b93c9034b9903737ba1037bbb732b960411b6044820152606490fd5b604051906108fa8261036c565b60608252565b6040519061090d8261038c565b8160405161091a8161036c565b60608152815260206040519161092f8361036c565b606083520152565b6040516109438161036c565b60008152906000368137565b906109598261041c565b61096660405191826103dd565b8281528092610977601f199161041c565b0190602036910137565b610989610900565b50610992610937565b906001600160401b03811660648110610a9057506005607f60991b01803f15610a7e576000926109d16109df85946040519283916020830195866112aa565b03601f1981018352826103dd565b51915af46109eb611396565b9015610a6c576109fa9061143b565b610a02610900565b90610a216002610a1b610a1484611573565b9214611037565b826115ed565b835191909152607b60f91b6001600160f81b0319610a3f8385610f4f565b511614610a5957610a4f916115ed565b5060208201515290565b5050610a63610937565b60208201515290565b604051638a7db5bf60e01b8152600490fd5b60405163064d954b60e41b8152600490fd5b6024906040519063a292827360e01b82526004820152fd5b906020810151610ac1610abc825151610ec6565b61094f565b90600190816020820151151514600090600014610bed57508190600160f81b5b60001a610aed85610f2c565b53816000925b610ba3575b5050505081610b7f610b79610b8493610b72610b33610b24610b1f610b8a9a995151611ad4565b610f11565b610b2d84611ad4565b90610f1f565b91610b6c610b5a610b556040890195610b2d610b50885160070b90565b611b0c565b611d07565b96610b6488612003565b515187611dc9565b85611dc9565b5160070b90565b82610f6f565b611d87565b90611213565b51610b9157565b604051630e74990760e01b8152600490fd5b81518051841015610be757610be091610bda91610bc58660ff60f81b92610f4f565b511660001a610bd48289610f4f565b53610f60565b92610f60565b9183610af3565b50610af8565b908291610ae1565b60405190610c028261038c565b6000602083606081520152565b604090815191610c1e8361038c565b805183610c2a8261038c565b8251610c358161036c565b6060808252908352835190810192906001600160401b03841181851017610387576020938552610c63610bf5565b8152610c6d610bf5565b848201526000858201528382015281526000835193610c8b856103a7565b610c936108ed565b8552610c9d610bf5565b8486015284015260006060840152600060808401520152565b610cd190610cc2610c0f565b50610ccb610937565b9061126c565b610d7a610cdc610c0f565b91610d67610d44610d236003610d1d610a14610d126002610d0c610a1482610d06610a148d611573565b8b6115de565b886115ed565b908a515152876115de565b846115ed565b815190919015610e8957610d369061109a565b602087510151525b836115ed565b815190919015610e6057610d579061109a565b6020808751015101525b82611174565b92906040602086510151019060070b9052565b610d9c607b60f91b6001600160f81b0319610d958585610f4f565b5116141590565b610da557505090565b6080610e2f610e2a83610e1c610e16610e07610dd56005610dcf610a146108a39c610de79c6115de565b856115ed565b60208c9a929a01998a515152856115ed565b815190919015610e3a57610dfa9061109a565b60208a5101525b84611174565b919060408951019060070b9052565b826114e4565b929060608751019015159052565b6114e4565b509151019015159052565b50610e43610937565b610e4b61040f565b9081526000602082015260208a510152610e01565b50610e69610937565b610e7161040f565b90815260006020820152602080875101510152610d61565b50610e92610937565b610e9a61040f565b9081526000602082015260208751015152610d3e565b634e487b7160e01b600052601160045260246000fd5b9060018201809211610ed457565b610eb0565b9060028201809211610ed457565b9060048201809211610ed457565b9060088201809211610ed457565b9060208201809211610ed457565b6001019081600111610ed457565b91908201809211610ed457565b805115610f395760200190565b634e487b7160e01b600052603260045260246000fd5b908151811015610f39570160200190565b6000198114610ed45760010190565b90600781900b60008112610f93575061040d916001600160401b039091169061207a565b610f9d9150611aeb565b6001600160401b03811660178111610fc55750602060ff610fc29351921617906125ba565b50565b905060ff8111610fe45781610fdd610fc2935161222d565b5051612777565b61ffff81116110025781610ffb610fc293516121c8565b5051612709565b63ffffffff8111611022578161101b610fc29351612163565b5051612699565b81611030610fc293516120f3565b5051612625565b1561103e57565b634e487b7160e01b600052600160045260246000fd5b604051906110618261038c565b6001825260006020830152565b600019810191908211610ed457565b6020039060208211610ed457565b601f19810191908211610ed457565b6110a2610bf5565b50805115611157576110b7610abc825161106e565b906000908190600160f81b6001600160f81b03196110e56110d784610f2c565b516001600160f81b03191690565b161461114e575b60019081805b611113575b505050506108a39061110761040f565b92835215156020830152565b8151811015611149578061112d6110d76111439385610f4f565b610bd46111398361106e565b91871a9189610f4f565b826110f2565b6110f7565b600192506110ec565b5061116061040f565b611168611054565b81526000602082015290565b60ff92916111819161184c565b939091166001811490811561120a575b50156111a7576001600160401b031660070b9190565b60405162461bcd60e51b815260206004820152603560248201527f696e76616c6964206d616a20286578706563746564204d616a5369676e6564496044820152746e74206f72204d616a556e7369676e6564496e742960581b6064820152608490fd5b90501538611191565b6001600160401b03811660648110610a9057506005607f60991b01803f15610a7e576000926109d161125185946040519283916020830195866112f1565b51915af461125d611396565b9015610a6c576108a39061143b565b6001600160401b03811660648110610a9057506005607f60991b01803f15610a7e576000926109d16112518594604051928391602083019586611328565b906112e160a09194939463c33a1cc6845260006020850152600160408501526000606085015260c0608085015260c084019061086d565b6001600160401b03909416910152565b906112e160a091949394635d9dfc2c845260006020850152600060408501526051606085015260c0608085015260c084019061086d565b906112e160a09194939463f7e4e299845260006020850152600160408501526000606085015260c0608085015260c084019061086d565b906112e160a091949394633c3c5e9b845260006020850152600060408501526051606085015260c0608085015260c084019061086d565b3d156113c1573d906113a78261041c565b916113b560405193846103dd565b82523d6000602084013e565b606090565b90916060828403126100ed5781519260208301516113e3816100dc565b604084015190936001600160401b0382116100ed570181601f820112156100ed57805161140f8161041c565b9261141d60405194856103dd565b818452602082840101116100ed576108a3916020808501910161084a565b61144e90602080825183010191016113c6565b91906001600160401b0381168061148b5750508151610b91575b80611471575090565b60405163d4bb667160e01b81526004810191909152602490fd5b605181149081156114d9575b50156114b65750815161146857604051630e74990760e01b8152600490fd5b60405163f1f6bced60e01b81526001600160401b03919091166004820152602490fd5b607191501438611497565b6114f36007939260ff9261184c565b946001600160401b03909116929091160361152e57806015601492148015611525575b61151f90611037565b14159190565b50808214611516565b60405162461bcd60e51b815260206004820152601f60248201527f696e76616c6964206d616a20286578706563746564204d616a4f7468657229006044820152606490fd5b9060ff61158160049361179c565b94919290921603611599576001600160401b03169190565b60405162461bcd60e51b815260206004820152601f60248201527f696e76616c6964206d616a20286578706563746564204d616a417272617929006044820152606490fd5b6115816004939260ff9261184c565b916115fa6000928461184c565b908160ff60018060401b03809316941660068114809181156116fc575b50156116a057611679575b505061162e8282610f1f565b6116378361094f565b948083915b83831061165357505050506108a392939450610f1f565b610bda611673916116676110d7868d610f4f565b841a610bd4828c610f4f565b9161163c565b60ff935061169991925061168f6002918861184c565b9416941614611037565b3880611622565b60405162461bcd60e51b815260206004820152602e60248201527f696e76616c6964206d616a20286578706563746564204d616a546167206f722060448201526d4d616a42797465537472696e672960901b6064820152608490fd5b600291501438611617565b1561170e57565b60405162461bcd60e51b815260206004820152602560248201527f63616e6e6f742068616e646c6520686561646572732077697468206578747261604482015264203e20323760d81b6064820152608490fd5b1561176857565b60405162461bcd60e51b815260206004820152600c60248201526b34b73b30b634b21031b137b960a11b6044820152606490fd5b906117a682611968565b91601f60078460051c1693166117be601c8210611707565b601881106118455760188114611823576019811461180f57601a81146117f957906117ee601b6117f39314611037565b611a54565b90600990565b5061180863ffffffff91611a14565b1690600590565b5061181c61ffff916119d4565b1690600390565b5061182f60ff91611987565b169161183e6018841015611761565b9190600290565b9160019150565b909161186161185b84846119a9565b93610ec6565b91601f60078560051c169416611879601c8210611707565b6018811061191f57601881146118fa579081601985969593146118e357601a81146118c357916118b7916118b2601b6118bd9514611037565b611a6d565b93610ef5565b91929190565b506118d663ffffffff926118dc92611a2d565b94610ee7565b9293169190565b506118f461ffff926118dc926119ed565b94610ed9565b5061190a61185b8460ff936119a9565b92169261191a6018851015611761565b929190565b92919050565b1561192c57565b60405162461bcd60e51b8152602060048201526014602482015273736c6963696e67206f7574206f662072616e676560601b6044820152606490fd5b611976600182511015611925565b805115610f39576020015160f81c90565b611995600282511015611925565b805160011015610f39576021015160f81c90565b908151916001820192838311610ed4576119cd936119c8911015611925565b610f4f565b5160f81c90565b6021906119e5600382511015611925565b015160f01c90565b908151916002820192838311610ed457602093611a0b911015611925565b01015160f01c90565b602190611a25600582511015611925565b015160e01c90565b908151916004820192838311610ed457602093611a4b911015611925565b01015160e01c90565b602190611a65600982511015611925565b015160c01c90565b908151916008820192838311610ed457602093611a8b911015611925565b01015160c01c90565b60178111611aa25750600190565b60ff8111611ab05750600290565b61ffff8111611abf5750600390565b63ffffffff1015611acf57600990565b600590565b51611ade81611a94565b908101809111610ed45790565b60070b199060016001603f1b0319821260016001603f1b03831317610ed457565b600781900b60008112611b2c57506108a3906001600160401b0316611a94565b6108a391506001600160401b0390611b4390611aeb565b16611a94565b90611b6690610b7f611b5e610b558351611ad4565b915182611dc9565b906001600160401b03811660648110610a9057506005607f60991b01803f15610a7e576000926109d1611ba5859460405192839160208301958661135f565b51915af4611bb1611396565b9015610a6c57610b8a9061143b565b15611bc757565b60405162461bcd60e51b8152602060048201526011602482015270496e707574206973206e6567617469766560781b6044820152606490fd5b60405190611c0d8261038c565b600082526020820160008152602082015115158152602082515111611c8057611c51611c5591611c5a93518051908115600014611c5e575050600085525b51151590565b1590565b611bc0565b5190565b611c73611c6d611c7892611cb6565b9261107d565b611cd9565b1c8552611c4b565b60405162461bcd60e51b815260206004820152600e60248201526d4c656e677468206578636565647360901b6044820152606490fd5b602081519101519060208110611cca575090565b6000199060200360031b1b1690565b600381901b91906001600160fd1b03811603610ed457565b908160011b9180830460021490151715610ed457565b600060405191611d168361038c565b611d32611d21610bf5565b918285526020850192848452611d37565b505290565b90611d40610bf5565b50601f811680611d6f575b50806020830152604051908183526000825281016020019081106100ed5760405290565b611d789061107d565b8101809111610ed45738611d4b565b6020810151611d9557515190565b60405162461bcd60e51b815260206004820152600c60248201526b24b73b30b634b21021a127a960a11b6044820152606490fd5b8151610fc29291906001600160401b0381169060178211611e0d57611df89150604060ff8451921617906125ba565b505b5190611e04610bf5565b50805191611f4c565b5060ff8111611e3257611e2c90611e2483516123c1565b508251612777565b50611dfa565b61ffff8111611e5157611e2c90611e49835161235c565b508251612709565b63ffffffff8111611e7257611e2c90611e6a83516122f7565b508251612699565b611e2c90611e808351612292565b508251612625565b90611e91610bf5565b508051611e9c610bf5565b50611eaa8251821115611f45565b82515191611eb88284610f1f565b6020918291828701518111611f2e575b865183815197820101968211611f26575b505001915b81811015611f005760001991036101000a019081199051169082511617905290565b9192611f1b611f15611f219286518152610f03565b94610f03565b9261108b565b611ede565b523880611ed9565b611f40611f3a82611cf1565b88611fec565b611ec8565b156100ed57565b91611f55610bf5565b50611f638251821115611f45565b82515191611f718284610f1f565b6020918291828701518111611fdb575b865183815197820101968211611fd3575b505001915b81811015611fb95760001991036101000a019081199051169082511617905290565b9192611f1b611f15611fce9286518152610f03565b611f97565b523880611f92565b611fe7611f3a82611cf1565b611f81565b90610fc291611ffd81519282611d37565b50611e88565b5161200c610bf5565b508051516001810191828211610ed4576020810151821015612043575b602060839151928301015380518211612040575050565b52565b8260011b83810460021484151715610ed4578161207160209261206a608395519184611d37565b5082611e88565b50915050612029565b906001600160401b0381166017811161209d575060ff610fc292519116906125ba565b905060ff81116120b55781610fdd610fc29351612555565b61ffff81116120cc5781610ffb610fc293516124f0565b63ffffffff81116120e5578161101b610fc2935161248b565b81611030610fc29351612426565b6120fb610bf5565b508051516001810190818111610ed4576020830151811015612134575b603b6020845192830101538051821161213057505090565b5290565b8160011b82810460021483151715610ed45761215d9061215685519186611d37565b5084611e88565b50612118565b61216b610bf5565b508051516001810190818111610ed45760208301518110156121a0575b603a6020845192830101538051821161213057505090565b8160011b82810460021483151715610ed4576121c29061215685519186611d37565b50612188565b6121d0610bf5565b508051516001810190818111610ed4576020830151811015612205575b60396020845192830101538051821161213057505090565b8160011b82810460021483151715610ed4576122279061215685519186611d37565b506121ed565b612235610bf5565b508051516001810190818111610ed457602083015181101561226a575b60386020845192830101538051821161213057505090565b8160011b82810460021483151715610ed45761228c9061215685519186611d37565b50612252565b61229a610bf5565b508051516001810190818111610ed45760208301518110156122cf575b605b6020845192830101538051821161213057505090565b8160011b82810460021483151715610ed4576122f19061215685519186611d37565b506122b7565b6122ff610bf5565b508051516001810190818111610ed4576020830151811015612334575b605a6020845192830101538051821161213057505090565b8160011b82810460021483151715610ed4576123569061215685519186611d37565b5061231c565b612364610bf5565b508051516001810190818111610ed4576020830151811015612399575b60596020845192830101538051821161213057505090565b8160011b82810460021483151715610ed4576123bb9061215685519186611d37565b50612381565b6123c9610bf5565b508051516001810190818111610ed45760208301518110156123fe575b60586020845192830101538051821161213057505090565b8160011b82810460021483151715610ed4576124209061215685519186611d37565b506123e6565b61242e610bf5565b508051516001810190818111610ed4576020830151811015612463575b601b6020845192830101538051821161213057505090565b8160011b82810460021483151715610ed4576124859061215685519186611d37565b5061244b565b612493610bf5565b508051516001810190818111610ed45760208301518110156124c8575b601a6020845192830101538051821161213057505090565b8160011b82810460021483151715610ed4576124ea9061215685519186611d37565b506124b0565b6124f8610bf5565b508051516001810190818111610ed457602083015181101561252d575b60196020845192830101538051821161213057505090565b8160011b82810460021483151715610ed45761254f9061215685519186611d37565b50612515565b61255d610bf5565b508051516001810190818111610ed4576020830151811015612592575b60186020845192830101538051821161213057505090565b8160011b82810460021483151715610ed4576125b49061215685519186611d37565b5061257a565b906125c3610bf5565b508151516001810191828211610ed45760208401518210156125f6575b6020845192830101538051821161213057505090565b8260011b83810460021484151715610ed45761261f9061261886519187611d37565b5085611e88565b506125e0565b9061262e610bf5565b50815151806008019182600811610ed45760208401518311612671575b835191820160080180516001600160401b03191690911790528051821161213057505090565b8260011b83810460021484151715610ed4576126939061261886519187611d37565b5061264b565b906126a2610bf5565b50815151806004019182600411610ed457602084015183116126e1575b60048451928301019063ffffffff198251161790528051821161213057505090565b8260011b83810460021484151715610ed4576127039061261886519187611d37565b506126bf565b90612712610bf5565b50815151806002019182600211610ed4576020840151831161274f575b60028451928301019061ffff198251161790528051821161213057505090565b8260011b83810460021484151715610ed4576127719061261886519187611d37565b5061272f565b90612780610bf5565b50815151806001019182600111610ed457602084015183116127bc575b60018451928301019060ff198251161790528051821161213057505090565b8260011b83810460021484151715610ed4576127de9061261886519187611d37565b5061279d56fe9016d09d72d40fdae2fd8ceac6b6234c7706214fd39c1cd1e609a0528c1993008be0079c531659141344cd1fd0a4f28419497f9722a3daafe3b4186f6b6457e0f0c57e16840df040f15088dc2f81fe391c3923bec73e23a9662efc9c229c6a00a2646970667358221220e2c6375e12d859c4b9e6440b757294ef8315da0433d7533d843a5a31ff1e5a8a64736f6c63430008140033",
  "linkReferences": {},
  "deployedLinkReferences": {}
}