{
  "_format": "hh-sol-artifact-1",
  "contractName": "SPexBeneficiary",
  "sourceName": "contracts/beneficiary.sol",
  "abi": [
    {
      "inputs": [],
      "stateMutability": "nonpayable",
      "type": "constructor"
    },
    {
      "inputs": [
        {
          "internalType": "int256",
          "name": "errorCode",
          "type": "int256"
        }
      ],
      "name": "ActorError",
      "type": "error"
    },
    {
      "inputs": [],
      "name": "ActorNotFound",
      "type": "error"
    },
    {
      "inputs": [],
      "name": "FailToCallActor",
      "type": "error"
    },
    {
      "inputs": [
        {
          "internalType": "CommonTypes.FilActorId",
          "name": "actorId",
          "type": "uint64"
        }
      ],
      "name": "InvalidActorID",
      "type": "error"
    },
    {
      "inputs": [
        {
          "internalType": "uint64",
          "name": "",
          "type": "uint64"
        }
      ],
      "name": "InvalidCodec",
      "type": "error"
    },
    {
      "inputs": [],
      "name": "InvalidResponseLength",
      "type": "error"
    },
    {
      "inputs": [
        {
          "internalType": "uint256",
          "name": "balance",
          "type": "uint256"
        },
        {
          "internalType": "uint256",
          "name": "value",
          "type": "uint256"
        }
      ],
      "name": "NotEnoughBalance",
      "type": "error"
    },
    {
      "anonymous": false,
      "inputs": [
        {
          "indexed": false,
          "internalType": "address",
          "name": "",
          "type": "address"
        },
        {
          "indexed": false,
          "internalType": "address",
          "name": "",
          "type": "address"
        },
        {
          "indexed": false,
          "internalType": "CommonTypes.FilActorId",
          "name": "",
          "type": "uint64"
        },
        {
          "indexed": false,
          "internalType": "uint256",
          "name": "",
          "type": "uint256"
        },
        {
          "indexed": false,
          "internalType": "uint256",
          "name": "",
          "type": "uint256"
        },
        {
          "indexed": false,
          "internalType": "uint256",
          "name": "",
          "type": "uint256"
        }
      ],
      "name": "EventBuyLoan",
      "type": "event"
    },
    {
      "anonymous": false,
      "inputs": [
        {
          "indexed": false,
          "internalType": "address",
          "name": "",
          "type": "address"
        },
        {
          "indexed": false,
          "internalType": "CommonTypes.FilActorId",
          "name": "",
          "type": "uint64"
        }
      ],
      "name": "EventCancelSellLoan",
      "type": "event"
    },
    {
      "anonymous": false,
      "inputs": [
        {
          "indexed": false,
          "internalType": "CommonTypes.FilActorId",
          "name": "",
          "type": "uint64"
        },
        {
          "indexed": false,
          "internalType": "address",
          "name": "",
          "type": "address"
        }
      ],
      "name": "EventChangeMinerDelegator",
      "type": "event"
    },
    {
      "anonymous": false,
      "inputs": [
        {
          "indexed": false,
          "internalType": "CommonTypes.FilActorId",
          "name": "",
          "type": "uint64"
        },
        {
          "indexed": false,
          "internalType": "bool",
          "name": "",
          "type": "bool"
        }
      ],
      "name": "EventChangeMinerDisabled",
      "type": "event"
    },
    {
      "anonymous": false,
      "inputs": [
        {
          "indexed": false,
          "internalType": "CommonTypes.FilActorId",
          "name": "",
          "type": "uint64"
        },
        {
          "indexed": false,
          "internalType": "uint256",
          "name": "",
          "type": "uint256"
        }
      ],
      "name": "EventChangeMinerLoanInterestRate",
      "type": "event"
    },
    {
      "anonymous": false,
      "inputs": [
        {
          "indexed": false,
          "internalType": "CommonTypes.FilActorId",
          "name": "",
          "type": "uint64"
        },
        {
          "indexed": false,
          "internalType": "uint256",
          "name": "",
          "type": "uint256"
        }
      ],
      "name": "EventChangeMinerMaxDebtAmount",
      "type": "event"
    },
    {
      "anonymous": false,
      "inputs": [
        {
          "indexed": false,
          "internalType": "CommonTypes.FilActorId",
          "name": "",
          "type": "uint64"
        },
        {
          "indexed": false,
          "internalType": "uint256",
          "name": "",
          "type": "uint256"
        }
      ],
      "name": "EventChangeMinerMaxLenderCount",
      "type": "event"
    },
    {
      "anonymous": false,
      "inputs": [
        {
          "indexed": false,
          "internalType": "CommonTypes.FilActorId",
          "name": "",
          "type": "uint64"
        },
        {
          "indexed": false,
          "internalType": "uint256",
          "name": "",
          "type": "uint256"
        }
      ],
      "name": "EventChangeMinerMinLendAmount",
      "type": "event"
    },
    {
      "anonymous": false,
      "inputs": [
        {
          "indexed": false,
          "internalType": "CommonTypes.FilActorId",
          "name": "",
          "type": "uint64"
        },
        {
          "indexed": false,
          "internalType": "address",
          "name": "",
          "type": "address"
        }
      ],
      "name": "EventChangeMinerReceiveAddress",
      "type": "event"
    },
    {
      "anonymous": false,
      "inputs": [
        {
          "indexed": false,
          "internalType": "address",
          "name": "",
          "type": "address"
        },
        {
          "indexed": false,
          "internalType": "CommonTypes.FilActorId",
          "name": "",
          "type": "uint64"
        },
        {
          "indexed": false,
          "internalType": "uint256",
          "name": "",
          "type": "uint256"
        }
      ],
      "name": "EventLendToMiner",
      "type": "event"
    },
    {
      "anonymous": false,
      "inputs": [
        {
          "indexed": false,
          "internalType": "CommonTypes.FilActorId",
          "name": "",
          "type": "uint64"
        },
        {
          "indexed": false,
          "internalType": "address",
          "name": "",
          "type": "address"
        },
        {
          "indexed": false,
          "internalType": "uint256",
          "name": "",
          "type": "uint256"
        },
        {
          "indexed": false,
          "internalType": "uint256",
          "name": "",
          "type": "uint256"
        },
        {
          "indexed": false,
          "internalType": "address",
          "name": "",
          "type": "address"
        },
        {
          "indexed": false,
          "internalType": "uint8",
          "name": "",
          "type": "uint8"
        },
        {
          "indexed": false,
          "internalType": "uint256",
          "name": "",
          "type": "uint256"
        }
      ],
      "name": "EventPledgeBeneficiaryToSpex",
      "type": "event"
    },
    {
      "anonymous": false,
      "inputs": [
        {
          "indexed": false,
          "internalType": "CommonTypes.FilActorId",
          "name": "",
          "type": "uint64"
        },
        {
          "components": [
            {
              "internalType": "bytes",
              "name": "data",
              "type": "bytes"
            }
          ],
          "indexed": false,
          "internalType": "struct CommonTypes.FilAddress",
          "name": "",
          "type": "tuple"
        }
      ],
      "name": "EventReleaseBeneficiary",
      "type": "event"
    },
    {
      "anonymous": false,
      "inputs": [
        {
          "indexed": false,
          "internalType": "address",
          "name": "",
          "type": "address"
        },
        {
          "indexed": false,
          "internalType": "address",
          "name": "",
          "type": "address"
        },
        {
          "indexed": false,
          "internalType": "CommonTypes.FilActorId",
          "name": "",
          "type": "uint64"
        },
        {
          "indexed": false,
          "internalType": "uint256",
          "name": "",
          "type": "uint256"
        },
        {
          "indexed": false,
          "internalType": "uint256",
          "name": "",
          "type": "uint256"
        }
      ],
      "name": "EventRepayment",
      "type": "event"
    },
    {
      "anonymous": false,
      "inputs": [
        {
          "indexed": false,
          "internalType": "address",
          "name": "",
          "type": "address"
        },
        {
          "indexed": false,
          "internalType": "CommonTypes.FilActorId",
          "name": "",
          "type": "uint64"
        },
        {
          "indexed": false,
          "internalType": "uint256",
          "name": "",
          "type": "uint256"
        },
        {
          "indexed": false,
          "internalType": "uint256",
          "name": "",
          "type": "uint256"
        }
      ],
      "name": "EventSellLoan",
      "type": "event"
    },
    {
      "anonymous": false,
      "inputs": [
        {
          "indexed": false,
          "internalType": "address",
          "name": "",
          "type": "address"
        },
        {
          "indexed": false,
          "internalType": "address",
          "name": "",
          "type": "address"
        },
        {
          "indexed": false,
          "internalType": "CommonTypes.FilActorId",
          "name": "",
          "type": "uint64"
        },
        {
          "indexed": false,
          "internalType": "uint256",
          "name": "",
          "type": "uint256"
        },
        {
          "indexed": false,
          "internalType": "uint256",
          "name": "",
          "type": "uint256"
        }
      ],
      "name": "EventWithdrawRepayment",
      "type": "event"
    },
    {
      "inputs": [],
      "name": "MAX_FEE_RATE",
      "outputs": [
        {
          "internalType": "uint256",
          "name": "",
          "type": "uint256"
        }
      ],
      "stateMutability": "view",
      "type": "function"
    },
    {
      "inputs": [],
      "name": "RATE_BASE",
      "outputs": [
        {
          "internalType": "uint256",
          "name": "",
          "type": "uint256"
        }
      ],
      "stateMutability": "view",
      "type": "function"
    },
    {
      "inputs": [],
      "name": "REQUIRED_EXPIRATION",
      "outputs": [
        {
          "internalType": "int64",
          "name": "",
          "type": "int64"
        }
      ],
      "stateMutability": "view",
      "type": "function"
    },
    {
      "inputs": [],
      "name": "REQUIRED_QUOTA",
      "outputs": [
        {
          "internalType": "uint256",
          "name": "",
          "type": "uint256"
        }
      ],
      "stateMutability": "view",
      "type": "function"
    },
    {
      "inputs": [],
      "name": "_feeRate",
      "outputs": [
        {
          "internalType": "uint256",
          "name": "",
          "type": "uint256"
        }
      ],
      "stateMutability": "view",
      "type": "function"
    },
    {
      "inputs": [],
      "name": "_foundation",
      "outputs": [
        {
          "internalType": "address",
          "name": "",
          "type": "address"
        }
      ],
      "stateMutability": "view",
      "type": "function"
    },
    {
      "inputs": [
        {
          "internalType": "address",
          "name": "",
          "type": "address"
        }
      ],
      "name": "_lastTimestampMap",
      "outputs": [
        {
          "internalType": "uint256",
          "name": "",
          "type": "uint256"
        }
      ],
      "stateMutability": "view",
      "type": "function"
    },
    {
      "inputs": [
        {
          "internalType": "address",
          "name": "",
          "type": "address"
        },
        {
          "internalType": "CommonTypes.FilActorId",
          "name": "",
          "type": "uint64"
        }
      ],
      "name": "_loans",
      "outputs": [
        {
          "internalType": "uint256",
          "name": "principalAmount",
          "type": "uint256"
        },
        {
          "internalType": "uint256",
          "name": "lastAmount",
          "type": "uint256"
        },
        {
          "internalType": "uint256",
          "name": "lastUpdateTime",
          "type": "uint256"
        }
      ],
      "stateMutability": "view",
      "type": "function"
    },
    {
      "inputs": [],
      "name": "_maxDebtRate",
      "outputs": [
        {
          "internalType": "uint256",
          "name": "",
          "type": "uint256"
        }
      ],
      "stateMutability": "view",
      "type": "function"
    },
    {
      "inputs": [
        {
          "internalType": "CommonTypes.FilActorId",
          "name": "",
          "type": "uint64"
        }
      ],
      "name": "_miners",
      "outputs": [
        {
          "internalType": "CommonTypes.FilActorId",
          "name": "minerId",
          "type": "uint64"
        },
        {
          "internalType": "address",
          "name": "delegator",
          "type": "address"
        },
        {
          "internalType": "uint256",
          "name": "maxDebtAmount",
          "type": "uint256"
        },
        {
          "internalType": "uint256",
          "name": "loanInterestRate",
          "type": "uint256"
        },
        {
          "internalType": "address",
          "name": "receiveAddress",
          "type": "address"
        },
        {
          "internalType": "bool",
          "name": "disabled",
          "type": "bool"
        },
        {
          "internalType": "uint256",
          "name": "principalAmount",
          "type": "uint256"
        },
        {
          "internalType": "uint256",
          "name": "maxLenderCount",
          "type": "uint256"
        },
        {
          "internalType": "uint256",
          "name": "minLendAmount",
          "type": "uint256"
        }
      ],
      "stateMutability": "view",
      "type": "function"
    },
    {
      "inputs": [
        {
          "internalType": "address",
          "name": "",
          "type": "address"
        },
        {
          "internalType": "CommonTypes.FilActorId",
          "name": "",
          "type": "uint64"
        }
      ],
      "name": "_sales",
      "outputs": [
        {
          "internalType": "uint256",
          "name": "amountRemaining",
          "type": "uint256"
        },
        {
          "internalType": "uint256",
          "name": "pricePerFil",
          "type": "uint256"
        }
      ],
      "stateMutability": "view",
      "type": "function"
    },
    {
      "inputs": [
        {
          "internalType": "address",
          "name": "lender",
          "type": "address"
        },
        {
          "internalType": "CommonTypes.FilActorId",
          "name": "minerId",
          "type": "uint64"
        }
      ],
      "name": "_updateLenderOwedAmount",
      "outputs": [
        {
          "internalType": "uint256",
          "name": "currentOwedAmount",
          "type": "uint256"
        }
      ],
      "stateMutability": "nonpayable",
      "type": "function"
    },
    {
      "inputs": [
        {
          "internalType": "address[]",
          "name": "lenderList",
          "type": "address[]"
        },
        {
          "internalType": "CommonTypes.FilActorId[]",
          "name": "minerIdList",
          "type": "uint64[]"
        },
        {
          "internalType": "uint256[]",
          "name": "amountList",
          "type": "uint256[]"
        }
      ],
      "name": "batchDirectRepayment",
      "outputs": [
        {
          "internalType": "uint256[]",
          "name": "actualRepaymentAmounts",
          "type": "uint256[]"
        }
      ],
      "stateMutability": "payable",
      "type": "function"
    },
    {
      "inputs": [
        {
          "internalType": "address[]",
          "name": "lenderList",
          "type": "address[]"
        },
        {
          "internalType": "CommonTypes.FilActorId[]",
          "name": "minerIdList",
          "type": "uint64[]"
        }
      ],
      "name": "batchDirectRepaymentWithTotalAmount",
      "outputs": [
        {
          "internalType": "uint256[]",
          "name": "actualRepaymentAmounts",
          "type": "uint256[]"
        }
      ],
      "stateMutability": "payable",
      "type": "function"
    },
    {
      "inputs": [
        {
          "internalType": "address[]",
          "name": "lenderList",
          "type": "address[]"
        },
        {
          "internalType": "CommonTypes.FilActorId[]",
          "name": "minerIdList",
          "type": "uint64[]"
        },
        {
          "internalType": "uint256[]",
          "name": "amountList",
          "type": "uint256[]"
        }
      ],
      "name": "batchWithdrawRepayment",
      "outputs": [
        {
          "internalType": "uint256",
          "name": "actuallRepaymentAmount",
          "type": "uint256"
        }
      ],
      "stateMutability": "nonpayable",
      "type": "function"
    },
    {
      "inputs": [
        {
          "internalType": "address[]",
          "name": "lenderList",
          "type": "address[]"
        },
        {
          "internalType": "CommonTypes.FilActorId[]",
          "name": "minerIdList",
          "type": "uint64[]"
        },
        {
          "internalType": "uint256",
          "name": "totalAmount",
          "type": "uint256"
        }
      ],
      "name": "batchWithdrawRepaymentWithTotalAmount",
      "outputs": [
        {
          "internalType": "uint256",
          "name": "actualRepaymentAmount",
          "type": "uint256"
        }
      ],
      "stateMutability": "nonpayable",
      "type": "function"
    },
    {
      "inputs": [
        {
          "internalType": "address payable",
          "name": "seller",
          "type": "address"
        },
        {
          "internalType": "CommonTypes.FilActorId",
          "name": "minerId",
          "type": "uint64"
        },
        {
          "internalType": "uint256",
          "name": "buyAmount",
          "type": "uint256"
        },
        {
          "internalType": "uint256",
          "name": "expectedPricePerFil",
          "type": "uint256"
        }
      ],
      "name": "buyLoan",
      "outputs": [],
      "stateMutability": "payable",
      "type": "function"
    },
    {
      "inputs": [
        {
          "internalType": "CommonTypes.FilActorId",
          "name": "minerId",
          "type": "uint64"
        }
      ],
      "name": "cancelLoanSale",
      "outputs": [],
      "stateMutability": "nonpayable",
      "type": "function"
    },
    {
      "inputs": [
        {
          "internalType": "uint256",
          "name": "newFeeRate",
          "type": "uint256"
        }
      ],
      "name": "changeFeeRate",
      "outputs": [],
      "stateMutability": "nonpayable",
      "type": "function"
    },
    {
      "inputs": [
        {
          "internalType": "address",
          "name": "foundation",
          "type": "address"
        }
      ],
      "name": "changeFoundation",
      "outputs": [],
      "stateMutability": "nonpayable",
      "type": "function"
    },
    {
      "inputs": [
        {
          "internalType": "uint256",
          "name": "newMaxDebtRate",
          "type": "uint256"
        }
      ],
      "name": "changeMaxDebtRate",
      "outputs": [],
      "stateMutability": "nonpayable",
      "type": "function"
    },
    {
      "inputs": [
        {
          "internalType": "CommonTypes.FilActorId",
          "name": "minerId",
          "type": "uint64"
        },
        {
          "internalType": "address",
          "name": "newDelegator",
          "type": "address"
        },
        {
          "internalType": "uint256",
          "name": "newMaxDebtAmount",
          "type": "uint256"
        },
        {
          "internalType": "uint256",
          "name": "newLoanInterestRate",
          "type": "uint256"
        },
        {
          "internalType": "address",
          "name": "newReceiveAddress",
          "type": "address"
        },
        {
          "internalType": "bool",
          "name": "disabled",
          "type": "bool"
        },
        {
          "internalType": "uint256",
          "name": "maxLenderCount",
          "type": "uint256"
        },
        {
          "internalType": "uint256",
          "name": "minLendAmount",
          "type": "uint256"
        }
      ],
      "name": "changeMinerBorrowParameters",
      "outputs": [],
      "stateMutability": "nonpayable",
      "type": "function"
    },
    {
      "inputs": [
        {
          "internalType": "CommonTypes.FilActorId",
          "name": "minerId",
          "type": "uint64"
        },
        {
          "internalType": "address",
          "name": "newDelegator",
          "type": "address"
        }
      ],
      "name": "changeMinerDelegator",
      "outputs": [],
      "stateMutability": "nonpayable",
      "type": "function"
    },
    {
      "inputs": [
        {
          "internalType": "CommonTypes.FilActorId",
          "name": "minerId",
          "type": "uint64"
        },
        {
          "internalType": "bool",
          "name": "disabled",
          "type": "bool"
        }
      ],
      "name": "changeMinerDisabled",
      "outputs": [],
      "stateMutability": "nonpayable",
      "type": "function"
    },
    {
      "inputs": [
        {
          "internalType": "CommonTypes.FilActorId",
          "name": "minerId",
          "type": "uint64"
        },
        {
          "internalType": "uint256",
          "name": "newLoanInterestRate",
          "type": "uint256"
        }
      ],
      "name": "changeMinerLoanInterestRate",
      "outputs": [],
      "stateMutability": "nonpayable",
      "type": "function"
    },
    {
      "inputs": [
        {
          "internalType": "CommonTypes.FilActorId",
          "name": "minerId",
          "type": "uint64"
        },
        {
          "internalType": "uint256",
          "name": "newMaxDebtAmount",
          "type": "uint256"
        }
      ],
      "name": "changeMinerMaxDebtAmount",
      "outputs": [],
      "stateMutability": "nonpayable",
      "type": "function"
    },
    {
      "inputs": [
        {
          "internalType": "CommonTypes.FilActorId",
          "name": "minerId",
          "type": "uint64"
        },
        {
          "internalType": "uint256",
          "name": "maxLenderCount",
          "type": "uint256"
        }
      ],
      "name": "changeMinerMaxLenderCount",
      "outputs": [],
      "stateMutability": "nonpayable",
      "type": "function"
    },
    {
      "inputs": [
        {
          "internalType": "CommonTypes.FilActorId",
          "name": "minerId",
          "type": "uint64"
        },
        {
          "internalType": "uint256",
          "name": "minLendAmount",
          "type": "uint256"
        }
      ],
      "name": "changeMinerMinLendAmount",
      "outputs": [],
      "stateMutability": "nonpayable",
      "type": "function"
    },
    {
      "inputs": [
        {
          "internalType": "CommonTypes.FilActorId",
          "name": "minerId",
          "type": "uint64"
        },
        {
          "internalType": "address",
          "name": "newReceiveAddress",
          "type": "address"
        }
      ],
      "name": "changeMinerReceiveAddress",
      "outputs": [],
      "stateMutability": "nonpayable",
      "type": "function"
    },
    {
      "inputs": [
        {
          "internalType": "address",
          "name": "lender",
          "type": "address"
        },
        {
          "internalType": "CommonTypes.FilActorId",
          "name": "minerId",
          "type": "uint64"
        }
      ],
      "name": "directRepayment",
      "outputs": [
        {
          "internalType": "uint256",
          "name": "actualRepaymentAmount",
          "type": "uint256"
        }
      ],
      "stateMutability": "payable",
      "type": "function"
    },
    {
      "inputs": [
        {
          "internalType": "address",
          "name": "lender",
          "type": "address"
        },
        {
          "internalType": "CommonTypes.FilActorId",
          "name": "minerId",
          "type": "uint64"
        }
      ],
      "name": "getCurrentLenderOwedAmount",
      "outputs": [
        {
          "internalType": "uint256",
          "name": "totalAmountOwed",
          "type": "uint256"
        },
        {
          "internalType": "uint256",
          "name": "principal",
          "type": "uint256"
        }
      ],
      "stateMutability": "view",
      "type": "function"
    },
    {
      "inputs": [
        {
          "internalType": "CommonTypes.FilActorId",
          "name": "minerId",
          "type": "uint64"
        }
      ],
      "name": "getCurrentMinerOwedAmount",
      "outputs": [
        {
          "internalType": "uint256",
          "name": "totalDebt",
          "type": "uint256"
        },
        {
          "internalType": "uint256",
          "name": "principal",
          "type": "uint256"
        }
      ],
      "stateMutability": "view",
      "type": "function"
    },
    {
      "inputs": [
        {
          "internalType": "CommonTypes.FilActorId",
          "name": "minerId",
          "type": "uint64"
        }
      ],
      "name": "getMiner",
      "outputs": [
        {
          "components": [
            {
              "internalType": "CommonTypes.FilActorId",
              "name": "minerId",
              "type": "uint64"
            },
            {
              "internalType": "address",
              "name": "delegator",
              "type": "address"
            },
            {
              "internalType": "uint256",
              "name": "maxDebtAmount",
              "type": "uint256"
            },
            {
              "internalType": "uint256",
              "name": "loanInterestRate",
              "type": "uint256"
            },
            {
              "internalType": "address",
              "name": "receiveAddress",
              "type": "address"
            },
            {
              "internalType": "bool",
              "name": "disabled",
              "type": "bool"
            },
            {
              "internalType": "uint256",
              "name": "principalAmount",
              "type": "uint256"
            },
            {
              "internalType": "uint256",
              "name": "maxLenderCount",
              "type": "uint256"
            },
            {
              "internalType": "uint256",
              "name": "minLendAmount",
              "type": "uint256"
            },
            {
              "internalType": "address[]",
              "name": "lenders",
              "type": "address[]"
            }
          ],
          "internalType": "struct SPexBeneficiary.Miner",
          "name": "",
          "type": "tuple"
        }
      ],
      "stateMutability": "view",
      "type": "function"
    },
    {
      "inputs": [
        {
          "internalType": "CommonTypes.FilActorId",
          "name": "minerId",
          "type": "uint64"
        },
        {
          "internalType": "uint256",
          "name": "expectedInterestRate",
          "type": "uint256"
        }
      ],
      "name": "lendToMiner",
      "outputs": [],
      "stateMutability": "payable",
      "type": "function"
    },
    {
      "inputs": [
        {
          "internalType": "CommonTypes.FilActorId",
          "name": "minerId",
          "type": "uint64"
        },
        {
          "internalType": "uint256",
          "name": "amount",
          "type": "uint256"
        },
        {
          "internalType": "uint256",
          "name": "price",
          "type": "uint256"
        }
      ],
      "name": "modifyLoanSale",
      "outputs": [],
      "stateMutability": "nonpayable",
      "type": "function"
    },
    {
      "inputs": [
        {
          "internalType": "CommonTypes.FilActorId",
          "name": "minerId",
          "type": "uint64"
        },
        {
          "internalType": "bytes",
          "name": "sign",
          "type": "bytes"
        },
        {
          "internalType": "uint256",
          "name": "timestamp",
          "type": "uint256"
        },
        {
          "internalType": "uint256",
          "name": "maxDebtAmount",
          "type": "uint256"
        },
        {
          "internalType": "uint256",
          "name": "loanInterestRate",
          "type": "uint256"
        },
        {
          "internalType": "address",
          "name": "receiveAddress",
          "type": "address"
        },
        {
          "internalType": "bool",
          "name": "disabled",
          "type": "bool"
        },
        {
          "internalType": "uint8",
          "name": "maxLenderCount",
          "type": "uint8"
        },
        {
          "internalType": "uint256",
          "name": "minLendAmount",
          "type": "uint256"
        }
      ],
      "name": "pledgeBeneficiaryToSpex",
      "outputs": [],
      "stateMutability": "nonpayable",
      "type": "function"
    },
    {
      "inputs": [
        {
          "internalType": "CommonTypes.FilActorId",
          "name": "minerId",
          "type": "uint64"
        }
      ],
      "name": "releaseBeneficiary",
      "outputs": [],
      "stateMutability": "nonpayable",
      "type": "function"
    },
    {
      "inputs": [
        {
          "internalType": "CommonTypes.FilActorId",
          "name": "minerId",
          "type": "uint64"
        },
        {
          "internalType": "uint256",
          "name": "ceilingAmount",
          "type": "uint256"
        },
        {
          "internalType": "uint256",
          "name": "pricePerFil",
          "type": "uint256"
        }
      ],
      "name": "sellLoan",
      "outputs": [],
      "stateMutability": "nonpayable",
      "type": "function"
    },
    {
      "inputs": [
        {
          "internalType": "address payable",
          "name": "to",
          "type": "address"
        },
        {
          "internalType": "uint256",
          "name": "amount",
          "type": "uint256"
        }
      ],
      "name": "withdraw",
      "outputs": [],
      "stateMutability": "payable",
      "type": "function"
    },
    {
      "inputs": [
        {
          "internalType": "address payable",
          "name": "lender",
          "type": "address"
        },
        {
          "internalType": "CommonTypes.FilActorId",
          "name": "minerId",
          "type": "uint64"
        },
        {
          "internalType": "uint256",
          "name": "amount",
          "type": "uint256"
        }
      ],
      "name": "withdrawRepayment",
      "outputs": [
        {
          "internalType": "uint256",
          "name": "actualRepaymentAmount",
          "type": "uint256"
        }
      ],
      "stateMutability": "nonpayable",
      "type": "function"
    }
  ],
  "bytecode": "0x6080806040523461003657600480546001600160a01b0319163317905562061a80600655620186a0600555614b0b908161003c8239f35b600080fdfe6080604052600436101561001257600080fd5b60003560e01c806269b8d7146102965780630873c6ec146102915780630d5631561461028c578063118f6c0f1461028757806317c81daf1461028257806328ad52241461027d5780632eea0df8146102785780633f542dfc146102735780635174aa481461026e57806364c19cfc1461026957806365a5f1cd146102645780636e2b45f81461025f578063709ac0a91461025a5780637ca0e6f0146102555780637f6298be14610250578063802381311461024b57806386a2e4a11461024657806392f6576e1461024157806398899fb41461023c5780639a7d154c14610237578063a71cacfb14610232578063a75b54c41461022d578063a9b5c4b614610228578063aa64e58e14610223578063ab6c06191461021e578063affca93214610219578063b2131f7d14610214578063c97c04e31461020f578063ce5b596c1461020a578063e1db7a6414610205578063ec585c1c14610200578063ed35cded146101fb578063f0dc4176146101f6578063f19e2f15146101f1578063f3fef3a3146101ec578063f7597582146101e7578063f75fcdb7146101e2578063f8004f2f146101dd578063f8ee4932146101d85763f9c200fb146101d357600080fd5b611d50565b611cb8565b611c1e565b611b43565b611b15565b611ac1565b611a70565b611a57565b6119cd565b6119b6565b611991565b611971565b611851565b611833565b61179d565b61167f565b61157f565b611427565b6113fe565b61131d565b611145565b611106565b6110e8565b61106d565b610f71565b610d27565b610d04565b610cbe565b610bc3565b610aed565b610acf565b610a82565b6109f4565b61094b565b6107cb565b610461565b6103d0565b610350565b610332565b6102b1565b6001600160401b038116036102ac57565b600080fd5b346102ac5760403660031901126102ac576004356102ce8161029b565b600080516020614a9683398151915260243560018060401b038316926000938085528460205261030e60018060a01b03604087205460401c163314612232565b84528360205281600660408620015561032c6040519283928361239a565b0390a180f35b346102ac5760003660031901126102ac576020604051620f42408152f35b346102ac5760003660031901126102ac5760206040517c03b58e88c75313ec9d329eaaa18fb92f75215b170ff21f494c589c00008152f35b6001600160a01b038116036102ac57565b60a435906103a682610388565b565b60409060031901126102ac576004356103c08161029b565b906024356103cd81610388565b90565b346102ac57600080516020614ab68339815191526103ed366103a8565b6001600160401b038216600081815260208190526040808220549195949291610423913391901c6001600160a01b031614612232565b8452836020526104368260408620611da5565b604080516001600160401b0390921682526001600160a01b039092166020820152908190810161032c565b60803660031901126102ac5760043561047981610388565b6024356104858161029b565b6044359161049282610b92565b6104a26006820154851015612a3b565b836104b5846104b085610c79565b610bac565b91600190818401936104fe6104f08587546104d36064358214612a91565b6104eb85546104e3811515612adb565b831115612b1c565b611e4e565b670de0b6b3a7640000900490565b9261050a843414612b74565b6105148833613eaa565b506001600160a01b0387169261053561052d8a86613eaa565b871115612bcc565b856105438a6104b08b610c93565b926105518b6104b033610c93565b938054906105996105846105658685611e4e565b9361059161058987860196875494859161057e83612c13565b90612705565b61217a565b9d8e93612c3f565b809555612c3f565b9055156106bf575b9383600097936105c3899894899889980192835415610693575b508254612705565b90556105d0898254612705565b90556105dd8c8254612c3f565b80915515610672575b828215610669575bf115610664579054604080513381526001600160a01b0390941660208501526001600160401b03909416938301939093526060820193909352608081019190915260a08101919091527fd206d37aa894a2ea9c46eb9c0e1931b106a3c2c75e369d9fd94f0f44847dc41f908060c081015b0390a1005b6127df565b506108fc6105ee565b61068e6106828b6104b08c610c79565b60016000918281550155565b6105e6565b6106b9904260028701556106b260078201916005835491015411612610565b3390612cd1565b386105bb565b600783016000825b6106d3575b50506105a1565b9091928c8c8454808510156107c1578a6107146107086106f3888a612c71565b905460039190911b1c6001600160a01b031690565b6001600160a01b031690565b1461072f5750505050906107288392612c4c565b8d936106c7565b956107b061079e6105c3946104b060009f9b979560009f9b60009f9b60009f9b6107949061077561076e6106f361076861079997612c13565b86612c71565b9184612c71565b90919082549060031b9160018060a01b03809116831b921b1916179055565b612c8e565b610c93565b60026000918281558260018201550155565b9498509498505093978195506106cc565b50505092916106cc565b346102ac5760403660031901126102ac576004356107e88161029b565b600080516020614a7683398151915260243560018060401b038316926000938085528460205261082860018060a01b03604087205460401c163314612232565b8452836020528160026040862061084761084185613e08565b1561227e565b015561032c6040519283928361239a565b634e487b7160e01b600052604160045260246000fd5b61014081019081106001600160401b0382111761088a57604052565b610858565b604081019081106001600160401b0382111761088a57604052565b602081019081106001600160401b0382111761088a57604052565b601f909101601f19168101906001600160401b0382119082101761088a57604052565b604051906103a68261086e565b604051906103a68261088f565b6001600160401b03811161088a57601f01601f191660200190565b60c4359081151582036102ac57565b60a4359081151582036102ac57565b60e4359060ff821682036102ac57565b346102ac576101203660031901126102ac576004356109698161029b565b602435906001600160401b0382116102ac57366023830112156102ac5781600401359161099583610902565b906109a360405192836108c5565b83825236602485830101116102ac57836000926109f295602460209401848301370101526109cf610399565b6109d761091d565b6109df61093b565b9161010435936084359060643590611f97565b005b346102ac576000805160206149f6833981519152610a11366103a8565b6001600160401b038216600081815260208190526040808220549195949291610a47913391901c6001600160a01b031614612232565b8452836020526104368260036040872001611dce565b60409060031901126102ac57600435610a7581610388565b906024356103cd8161029b565b610a95610a8e36610a5d565b3491613a90565b803403348111610aca5760008080809381863414610ac1575b3390f11561066457602090604051908152f35b506108fc610aae565b611e0a565b346102ac5760003660031901126102ac576020600654604051908152f35b346102ac5760203660031901126102ac57600435610b0a81610388565b600454906001600160a01b0390610b2433838516146140b3565b16908115610b3c576001600160a01b03191617600455005b60405162461bcd60e51b815260206004820152602860248201527f466f756e646174696f6e2063616e6e6f742062652073657420746f207a65726f604482015267206164647265737360c01b6064820152608490fd5b6001600160401b0316600090815260208190526040902090565b9060018060401b0316600052602052604060002090565b346102ac5760203660031901126102ac57600435610be08161029b565b6001600160401b039081166000908152602081815260409182902080546001820154600283015460038401546004850154600586015460069096015488519986168a526001600160a01b0395891c8616978a0197909752968801929092526060870152908116608086015260ff60a091821c1615159085015260c084019290925260e083019190915261010082015261012090f35b0390f35b6001600160a01b0316600090815260026020526040902090565b6001600160a01b0316600090815260016020526040902090565b908152602081019190915260400190565b346102ac57610ced610ccf36610a5d565b6001600160a01b039091166000908152600260205260409020610bac565b6001815491015490610c7560405192839283610cad565b346102ac5760003660031901126102ac5760405160016001603f1b038152602090f35b60403660031901126102ac57600435610d3f8161029b565b6000808080610e2761070861070887610e0f610d5a82610b92565b610d6b600282015460243514612561565b610e08610dff610df5610dec6003850196610d94610d8e895460ff9060a01c1690565b156125b9565b610da76007870154600588015411612610565b610db76006870154341015612654565b610dde610dc382613e08565b966001610dd4346004840154612705565b9101541015612712565b6001600160401b031661423e565b51933490612705565b9260065490611e4e565b620f4240900490565b1015612779565b610e1a348a33613d63565b546001600160a01b031690565b81903415610e80575b3491f11561066457604080513381526001600160401b03909216602083015234908201527fee7755ccbc8d3f4c5446591634da2ba593c81bc06d04be9d15cdcc7c8e5776b990806060810161065f565b6108fc9150610e30565b6001600160401b03811161088a5760051b60200190565b81601f820112156102ac57803591610eb883610e8a565b92610ec660405194856108c5565b808452602092838086019260051b8201019283116102ac578301905b828210610ef0575050505090565b8380918335610efe81610388565b815201910190610ee2565b81601f820112156102ac57803591610f2083610e8a565b92610f2e60405194856108c5565b808452602092838086019260051b8201019283116102ac578301905b828210610f58575050505090565b8380918335610f668161029b565b815201910190610f4a565b346102ac5760603660031901126102ac576001600160401b036004358181116102ac57610fa2903690600401610ea1565b906024359081116102ac57610fbb903690600401610f09565b6000610fca83518351146139a5565b60443591815b845181101561105f5761102f61102761102086611000610708610ff3878c613a7c565b516001600160a01b031690565b61101a61100d8789613a7c565b516001600160401b031690565b90612e25565b8096612c3f565b948594612705565b93156110465761103e90612c4c565b929192610fd0565b505050610c7591505b6040519081529081906020820190565b50509050610c75915061104f565b346102ac5760403660031901126102ac5760043561108a8161029b565b600080516020614a1683398151915260243560018060401b03831692600093808552846020526110ca60018060a01b03604087205460401c163314612232565b84528360205281600560408620015561032c6040519283928361239a565b346102ac5760003660031901126102ac57602060405162030d408152f35b346102ac5760603660031901126102ac57602061113d60043561112881610388565b6024356111348161029b565b60443591612e25565b604051908152f35b346102ac576040806003193601126102ac576004356111638161029b565b6001600160401b0381166000818152602081905283812054909260243592909161119a903390871c6001600160a01b031614612232565b8352826020528383206111ac82613e08565b83106111e057600080516020614a56833981519152939483600161032c936111d4838761219a565b0155519283928361239a565b845162461bcd60e51b815260206004820152603460248201526000805160206149d68339815191526044820152730818dd5c9c995b9d08185b5bdd5b9d081bddd95960621b6064820152608490fd5b9060606003198301126102ac576001600160401b03906004358281116102ac578361125c91600401610ea1565b926024358381116102ac578161127491600401610f09565b926044359081116102ac57816023820112156102ac5780600401359161129983610e8a565b926112a760405194856108c5565b80845260209260248486019260051b8201019283116102ac57602401905b8282106112d3575050505090565b813581529083019083016112c5565b6020908160408183019282815285518094520193019160005b828110611309575050505090565b8351855293810193928101926001016112fb565b6113263661122f565b919061133582518251146139a5565b6113428251845114613a11565b60009061134f8351613b3b565b93825b84518110156113b957806113a361139c611375610708610ff36113b4968b613a7c565b61138261100d8589613a7c565b61138c8588613a7c565b51916001600160a01b0316613a90565b8096612705565b946113ae8289613a7c565b52612c4c565b611352565b8560008080806113d5896113cf34821115613b63565b34612c3f565b8181156113f5575b3390f11561066457610c7590604051918291826112e2565b506108fc6113dd565b346102ac5760003660031901126102ac576004546040516001600160a01b039091168152602090f35b346102ac576101003660031901126102ac576004356114458161029b565b6024359061145282610388565b604435916084359161146383610388565b61146b61092c565b6001600160401b0382166000818152602081905260408082205491979392916114a1913391901c6001600160a01b031614612232565b865285602052604086206114b484613e08565b831061152f5761152c95600080516020614a568339815191526114f485806001611509966114e561150f9a8c61219a565b0155604051918291898361239a565b0390a1611503606435866123b5565b84612419565b82612469565b61151b60c435826124c9565b61152760e43582612521565b612322565b80f35b60405162461bcd60e51b815260206004820152603460248201526000805160206149d68339815191526044820152730818dd5c9c995b9d08185b5bdd5b9d081bddd95960621b6064820152608490fd5b346102ac5761159661159036610a5d565b90613fb4565b90610c7560405192839283610cad565b90815180825260208080930193019160005b8281106115c6575050505090565b83516001600160a01b0316855293810193928101926001016115b8565b602080825282516001600160401b0316908201526103cd916101609060208101516001600160a01b03166040840152604081015160608401526060810151608084015261163f608082015160a085019060018060a01b03169052565b60a0810151151560c084015260c081015160e084015260e081015161010090818501528101519061012091828501520151916101408082015201906115a6565b346102ac5760203660031901126102ac57610c7560043561169f8161029b565b604080516116ac8161086e565b61178f6007600080845280602085015280858501528060608501528060808501528060a08501528060c08501528060e08501528461010091808387015260606101208097015260018060401b03809816815280602052209061176c60ff6117116108e8565b8454998a166001600160401b0316815298881c6001600160a01b0390811660208b01526001850154898b0152600285015460608b015260038501549081166001600160a01b031660808b015260a01c1660a089019015159052565b600482015460c0880152600582015460e08801526006820154908701520161405b565b9083015251918291826115e3565b346102ac5760203660031901126102ac576004356117c660018060a01b036004541633146140b3565b62030d4081116117d557600555005b60405162461bcd60e51b815260206004820152603060248201527f4665652072617465206d757374206c657373207468616e206f7220657175616c60448201526f20746f204d41585f4645455f5241544560801b6064820152608490fd5b346102ac5760003660031901126102ac576020600554604051908152f35b60403660031901126102ac576001600160401b036004358181116102ac5761187d903690600401610ea1565b906024359081116102ac57611896903690600401610f09565b906118a481518351146139a5565b346118af8251613b3b565b9260005b835181101561193f576118f66118ef846118d3610708610ff3868a613a7c565b6118e061100d8688613a7c565b906001600160a01b0316613a90565b8094612c3f565b926119018287613a7c565b5282156119165761191190612c4c565b6118b3565b505060008080935080928181156113f5573390f11561066457610c7590604051918291826112e2565b505060008080935080926113d5565b60609060031901126102ac576004356119668161029b565b906024359060443590565b346102ac576109f26119823661194e565b9161198c81612997565b612887565b346102ac5760203660031901126102ac576109f26004356119b18161029b565b612997565b346102ac576109f26119c73661194e565b91612887565b346102ac576040806003193601126102ac576004356119eb8161029b565b602435918215158084036102ac57600080516020614a368339815191529260018060401b031690611a4960009583875286602052611a3760018060a01b0386892054871c163314612232565b83875286602052600385882001611ded565b82519182526020820152a180f35b346102ac57602061113d611a6a36610a5d565b90613eaa565b346102ac576060611aa1611a8336610a5d565b6001600160a01b039091166000908152600160205260409020610bac565b805490600260018201549101549060405192835260208301526040820152f35b60403660031901126102ac576000808080600435611ade81610388565b6024359060018060a01b03611af8816004541633146140b3565b83918315611b0b575b1690f11561066457005b6108fc9250611b01565b346102ac5760203660031901126102ac57611b3b60018060a01b036004541633146140b3565b600435600655005b346102ac5760203660031901126102ac57600435611b608161029b565b6001600160401b03818116600081815260208190526040808220549194939291611b97913391901c6001600160a01b031614612232565b83528260205260408320541615611bc557611bc081611bbb61084161152c94613e08565b610b92565b6122c4565b60405162461bcd60e51b815260206004820152602b60248201527f42656e6566696369617279206f66206d696e6572206973206e6f7420706c656460448201526a0cecac840e8de40a6a0caf60ab1b6064820152608490fd5b346102ac5760203660031901126102ac57600435611c3b8161029b565b6001600160401b0381166000908152602081905260408120909160078201835b8154851015611ca357611c8983611c728785612c71565b905460039190911b1c6001600160a01b0316613fb4565b508101809111610aca57611c9d9094612c4c565b93611c5b565b600484015490610c7560405192839283610cad565b346102ac57611cc63661122f565b9190600092611cd883518351146139a5565b611ce58351825114613a11565b835b8351851015611d4557611d2c6001600160a01b03611d058787613a7c565b51166001600160401b03611d198887613a7c565b5116611d258886613a7c565b5191612e25565b8101809111610aca57611d3f9094612c4c565b93611ce7565b602090604051908152f35b346102ac5760203660031901126102ac57600435611d6d81610388565b60018060a01b031660005260036020526020604060002054604051908152f35b604051611d99816108aa565b60008152906000368137565b8054600160401b600160e01b03191660409290921b600160401b600160e01b0316919091179055565b80546001600160a01b0319166001600160a01b03909216919091179055565b805460ff60a01b191691151560a01b60ff60a01b16919091179055565b634e487b7160e01b600052601160045260246000fd5b600381901b91906001600160fd1b03811603610aca57565b908160011b9180830460021490151715610aca57565b81810292918115918404141715610aca57565b8151916001600160401b03831161088a57600160401b831161088a578154838355808410611ec5575b50602080910191600052806000209060005b848110611eaa575050505050565b83516001600160a01b03168382015592810192600101611e9c565b6000838152846020822092830192015b828110611ee3575050611e8a565b818155600101611ed5565b815181546001600160401b0319166001600160401b039091161781556103a691600790610120906020810151611f2d906001600160a01b031685611da5565b60408101516001850155606081015160028501556080810151611f6f906003860190611f62906001600160a01b031682611dce565b60a0830151151590611ded565b60c0810151600485015560e08101516005850155610100810151600685015501519101611e61565b939295919594909460018060401b038516600052600060205260018060a01b0360406000205460401c166120d2577f7fee288760dddd9c2e18a4b3a1adc2334ffae2d5b48a50c5c8edf20be686417d9661207b6120cd95611ffa868a1015612116565b612004898961219a565b61200c611d8d565b6120506120176108e8565b6001600160401b038b16815292336020850152604084018c9052606084018690526001600160a01b0387166080850152151560a0840152565b600060c083015260ff861660e08301528661010083015261012082015261207688610b92565b611eee565b604080516001600160401b03909716875233602088015286019690965260608501959095526001600160a01b03909416608084015260ff9390931660a083015260c082019290925290819060e0820190565b0390a1565b60405162461bcd60e51b815260206004820152601c60248201527b0a8d0ca40dad2dccae440d2e640c2d8e4cac2c8f240d2dc40a6a0caf60231b6044820152606490fd5b1561211d57565b60405162461bcd60e51b815260206004820152602f60248201527f6d617844656274416d6f756e7420616d6f756e7420736d616c6c65722074686160448201526e1b881b5a5b93195b99105b5bdd5b9d608a1b6064820152608490fd5b8115612184570490565b634e487b7160e01b600052601260045260246000fd5b620f4240906121bf906121b5906001600160401b031661423e565b5160065490611e4e565b04106121c757565b60405162461bcd60e51b815260206004820152603e60248201527f537065636966696564206d6178206465627420616d6f756e742065786365656460448201527f73206d617820616c6c6f776564206279206d696e65722062616c616e636500006064820152608490fd5b1561223957565b60405162461bcd60e51b815260206004820152601e60248201527f4f6e6c79206d696e657227732064656c656761746f7220616c6c6f77656400006044820152606490fd5b1561228557565b60405162461bcd60e51b81526020600482015260176024820152762232b13a103737ba10333ab6363c903830b4b21037b33360491b6044820152606490fd5b600080825560076001928284820155826002820155826003820155826004820155826005820155826006820155019081549181815582612305575b50505050565b815260208120918201915b828110156122ff578181558301612310565b90600080516020614ab68339815191529161236f826040600180821b0384166000908082528160205261236360018060a01b0384842054851c163314612232565b81528060205220611da5565b604080516001600160401b0390921682526001600160a01b03909216602082015290819081016120cd565b6001600160401b039091168152602081019190915260400190565b90600080516020614a76833981519152918160026040600180821b038416600090808252816020526123f560018060a01b0384842054851c163314612232565b8152806020522061240861084185613e08565b01556120cd6040519283928361239a565b906000805160206149f68339815191529161236f8260036040600180821b0385166000908082528160205261245c60018060a01b0384842054851c163314612232565b8152806020522001611dce565b600080516020614a3683398151915291604091600180841b0316906124ba816003856000868152806020526124ac60018060a01b0383832054841c163314612232565b868152806020522001611ded565b825191825215156020820152a1565b90600080516020614a16833981519152918160056040600180821b0384166000908082528160205261250960018060a01b0384842054851c163314612232565b8152806020522001556120cd6040519283928361239a565b90600080516020614a96833981519152918160066040600180821b0384166000908082528160205261250960018060a01b0384842054851c163314612232565b1561256857565b60405162461bcd60e51b815260206004820152602360248201527f496e7465726573742072617465206e6f7420657175616c20746f2065787065636044820152621d195960ea1b6064820152608490fd5b156125c057565b60405162461bcd60e51b815260206004820152602260248201527f4c656e64696e6720666f722074686973206d696e65722069732064697361626c604482015261195960f21b6064820152608490fd5b1561261757565b60405162461bcd60e51b81526020600482015260156024820152744c656e64657273206c69737420746f6f206c6f6e6760581b6044820152606490fd5b1561265b57565b60405162461bcd60e51b815260206004820152602860248201527f4c656e6420616d6f756e7420736d616c6c6572207468616e206d696e696d756d60448201526708185b1b1bddd95960c21b6064820152608490fd5b9060018201809211610aca57565b9060028201809211610aca57565b9060048201809211610aca57565b9060088201809211610aca57565b9060208201809211610aca57565b6001019081600111610aca57565b91908201809211610aca57565b1561271957565b60405162461bcd60e51b815260206004820152603260248201527f4465627420616d6f756e74206166746572206c656e64206c6172676520746861604482015271371030b63637bbb2b210313c9036b4b732b960711b6064820152608490fd5b1561278057565b60405162461bcd60e51b815260206004820152603160248201527f446562742072617465206f66206d696e6572206166746572206c656e64206c616044820152701c99d95c881d1a185b88185b1b1bddd959607a1b6064820152608490fd5b6040513d6000823e3d90fd5b156127f257565b60405162461bcd60e51b815260206004820152601360248201527253616c6520616c72656164792065786973747360681b6044820152606490fd5b1561283457565b60405162461bcd60e51b815260206004820152602560248201527f6365696c696e67416d6f756e74206c657373207468616e206d696e4c656e64416044820152641b5bdd5b9d60da1b6064820152608490fd5b33600052600160205260016128a0826040600020610bac565b01541561295c576120cd7fa8395d60ca4abdc62c9e9dbbed68ca444be3ebeb1ad3fc6076a94701d77b080f936128e36128dc846104b033610c79565b54156127eb565b6128fb60066128f185610b92565b015485101561282d565b61292d6129066108f5565b85815282602082015261291c856104b033610c79565b906020600191805184550151910155565b604080513381526001600160401b03909416602085015283019390935260608201929092529081906080820190565b60405162461bcd60e51b8152602060048201526013602482015272131bd85b88191bd95cc81b9bdd08195e1a5cdd606a1b6044820152606490fd5b3360005260026020526129ae816040600020610bac565b5415612a0357604081600060016129e97f16bd63b39246d8727518bf83c056de02efef65ccfc8ef796c0589e25e7fd618a956104b033610c79565b8281550155815190338252600180841b03166020820152a1565b60405162461bcd60e51b815260206004820152601060248201526f14d85b1948191bdb89dd08195e1a5cdd60821b6044820152606490fd5b15612a4257565b60405162461bcd60e51b815260206004820152602160248201527f627579416d6f756e74206c657373207468616e206d696e4c656e64416d6f756e6044820152601d60fa1b6064820152608490fd5b15612a9857565b60405162461bcd60e51b815260206004820152601b60248201527a141c9a58d9481b9bdd08195c5d585b081d1bc8195e1c1958dd1959602a1b6044820152606490fd5b15612ae257565b60405162461bcd60e51b815260206004820152601260248201527114d85b1948191bd95cdb89dd08195e1a5cdd60721b6044820152606490fd5b15612b2357565b60405162461bcd60e51b8152602060048201526024808201527f627579416d6f756e74206c6172676572207468616e20616d6f756e74206f6e2060448201526373616c6560e01b6064820152608490fd5b15612b7b57565b60405162461bcd60e51b815260206004820152602360248201527f5061696420616d6f756e74206e6f7420657175616c20746f2073616c6520707260448201526269636560e81b6064820152608490fd5b15612bd357565b60405162461bcd60e51b8152602060048201526018602482015277125b9cdd59999a58da595b9d081bddd95908185b5bdd5b9d60421b6044820152606490fd5b600019810191908211610aca57565b6020039060208211610aca57565b601f19810191908211610aca57565b91908203918211610aca57565b6000198114610aca5760010190565b634e487b7160e01b600052603260045260246000fd5b8054821015612c895760005260206000200190600090565b612c5b565b80548015612cbb576000190190612ca58282612c71565b81549060018060a01b039060031b1b1916905555565b634e487b7160e01b600052603160045260246000fd5b80549190600160401b83101561088a57826107759160016103a695018155612c71565b15612cfb57565b60405162461bcd60e51b815260206004820152602c60248201527f596f7520617265206e6f74206c656e646572206f722064656c656761746f722060448201526b37b3103a34329036b4b732b960a11b6064820152608490fd5b15612d5c57565b60405162461bcd60e51b815260206004820152603b60248201527f4661696c65642077697468647261772062616c616e63653b2061637475616c2060448201527a776974686472617720616d6f756e74206973206e6567617469766560281b6064820152608490fd5b15612dcc57565b60405162461bcd60e51b815260206004820152602b60248201527f57697468647261776e20616d6f756e74206e6f7420657175616c20746f20726560448201526a1c185a5908185b5bdd5b9d60aa1b6064820152608490fd5b907f1fd9ef4b0ede18a629fb4ac74636637b4ec63453a4552e5345519e275edc2469919392936120cd612e5783610b92565b6001600160a01b038381169791612e7a91338a14918215612f41575b5050612cf4565b612ef6612ea9612ea1612e8d878b613eaa565b612e9a886104b089610c93565b5490612c3f565b92868a613bef565b978892808410612f38579283915b612ef182612eeb612ed0612eca83614212565b8c612f79565b612ee6612ee06020830151151590565b15612d55565b614139565b14612dc5565b613f68565b604080513381526001600160a01b0390941660208501526001600160401b039094169383019390935260608201869052608082019290925290819060a0820190565b50828391612eb7565b612f5692505460401c1660018060a01b031690565b33143880612e73565b60405190612f6c8261088f565b6000602083606081520152565b90612fc890612f86612f5f565b50612fc3612fbd612fae612fa9612fa4612f9f866132c9565b61398e565b6126f7565b614294565b92612fb884614595565b6132c9565b82614358565b614316565b906001600160401b0381166064811061305c57506005607f60991b01803f1561304a576000926130076130158594604051928391602083019586613384565b03601f1981018352826108c5565b51915af46130216133e1565b9015613038576130336103cd91613486565b6130a6565b604051638a7db5bf60e01b8152600490fd5b60405163064d954b60e41b8152600490fd5b6024906040519063a292827360e01b82526004820152fd5b9061307e82610902565b61308b60405191826108c5565b828152809261309c601f1991610902565b0190602036910137565b6130ae612f5f565b5080516130d4575b506130bf611d8d565b6130c76108f5565b9081526000602082015290565b906130de82613656565b91908260ff60018060401b03809316931661310560068214809281156131b5575b50613541565b61318d575b50506131168183612705565b9161312082613074565b928160005b82821061314c5750505061313b92939450612705565b508051156130b6576103cd906131f8565b6131816131879161316e613160858c6131e7565b516001600160f81b03191690565b60001a61317b828a6131e7565b53612c4c565b91612c4c565b90613125565b60ff93506131ae9192506131a360029187613706565b9594169316146135a4565b388061310a565b6002915014386130ff565b604051906131cd8261088f565b6001825260006020830152565b805115612c895760200190565b908151811015612c89570160200190565b613200612f5f565b508051156132ac5761321a6132158251612c13565b613074565b906000908190600160f81b6001600160f81b031961323a613160846131da565b16146132a3575b60019081805b613268575b505050506103cd9061325c6108f5565b92835215156020830152565b815181101561329e578061328261316061329893856131e7565b61317b61328e83612c13565b91871a91896131e7565b82613247565b61324c565b60019250613241565b506132b56108f5565b6132bd6131c0565b81526000602082015290565b6132d76132158251516126b1565b9060018060208301511515146000906000146133595750908190600160f81b5b60001a613303856131da565b53816000935b613315575b5050505090565b815180518510156133535761334c91613346916133378760ff60f81b926131e7565b511660001a61317b82896131e7565b93612c4c565b9282613309565b5061330e565b9181926132f7565b60005b8381106133745750506000910152565b8181015183820152602001613364565b9060e060a0919493946387ed0a64845260006020850152600060408501526051606085015260c060808501526133c9815180928160c088015260208588019101613361565b601f80199101168301019360018060401b0316910152565b3d1561340c573d906133f282610902565b9161340060405193846108c5565b82523d6000602084013e565b606090565b90916060828403126102ac57815192602083015161342e8161029b565b604084015190936001600160401b0382116102ac570181601f820112156102ac57805161345a81610902565b9261346860405194856108c5565b818452602082840101116102ac576103cd9160208085019101613361565b6134999060208082518301019101613411565b91906001600160401b038116806134e857505081516134d6575b806134bc575090565b60405163d4bb667160e01b81526004810191909152602490fd5b604051630e74990760e01b8152600490fd5b60518114908115613536575b5015613513575081516134b357604051630e74990760e01b8152600490fd5b60405163f1f6bced60e01b81526001600160401b03919091166004820152602490fd5b6071915014386134f4565b1561354857565b60405162461bcd60e51b815260206004820152602e60248201527f696e76616c6964206d616a20286578706563746564204d616a546167206f722060448201526d4d616a42797465537472696e672960901b6064820152608490fd5b156135ab57565b634e487b7160e01b600052600160045260246000fd5b156135c857565b60405162461bcd60e51b815260206004820152602560248201527f63616e6e6f742068616e646c6520686561646572732077697468206578747261604482015264203e20323760d81b6064820152608490fd5b1561362257565b60405162461bcd60e51b815260206004820152600c60248201526b34b73b30b634b21031b137b960a11b6044820152606490fd5b9061366082613822565b91601f60078460051c169316613678601c82106135c1565b601881106136ff57601881146136dd57601981146136c957601a81146136b357906136a8601b6136ad93146135a4565b61390e565b90600990565b506136c263ffffffff916138ce565b1690600590565b506136d661ffff9161388e565b1690600390565b506136e960ff91613841565b16916136f8601884101561361b565b9190600290565b9160019150565b909161371b6137158484613863565b936126b1565b91601f60078560051c169416613733601c82106135c1565b601881106137d957601881146137b45790816019859695931461379d57601a811461377d57916137719161376c601b61377795146135a4565b613927565b936126db565b91929190565b5061379063ffffffff92613796926138e7565b946126cd565b9293169190565b506137ae61ffff92613796926138a7565b946126bf565b506137c46137158460ff93613863565b9216926137d4601885101561361b565b929190565b92919050565b156137e657565b60405162461bcd60e51b8152602060048201526014602482015273736c6963696e67206f7574206f662072616e676560601b6044820152606490fd5b6138306001825110156137df565b805115612c89576020015160f81c90565b61384f6002825110156137df565b805160011015612c89576021015160f81c90565b908151916001820192838311610aca57613887936138829110156137df565b6131e7565b5160f81c90565b60219061389f6003825110156137df565b015160f01c90565b908151916002820192838311610aca576020936138c59110156137df565b01015160f01c90565b6021906138df6005825110156137df565b015160e01c90565b908151916004820192838311610aca576020936139059110156137df565b01015160e01c90565b60219061391f6009825110156137df565b015160c01c90565b908151916008820192838311610aca576020936139459110156137df565b01015160c01c90565b6017811161395c5750600190565b60ff811161396a5750600290565b61ffff81116139795750600390565b63ffffffff101561398957600990565b600590565b516139988161394e565b908101809111610aca5790565b156139ac57565b60405162461bcd60e51b815260206004820152603760248201527f546865206c656e67746873206f66206c656e6465724c69737420616e64204d696044820152761b995c9259131a5cdd081b5d5cdd08189948195c5d585b604a1b6064820152608490fd5b15613a1857565b60405162461bcd60e51b815260206004820152603660248201527f546865206c656e67746873206f66206c656e6465724c69737420616e6420616d6044820152751bdd5b9d131a5cdd081b5d5cdd08189948195c5d585b60521b6064820152608490fd5b8051821015612c895760209160051b010190565b9291613a9c8285613eaa565b60018060a01b03851690816000526001602052613abd846040600020610bac565b548103908111610aca5783613b0b613af960a0957fb11ad395e1672073f3110a99b5727bb40be5240375a703eb6c949699876f3c63978a613bef565b978893808510613b3257938491613f68565b60405192338452602084015260018060401b031660408301528560608301526080820152a1565b50838491613f68565b90613b4582610e8a565b613b5260405191826108c5565b828152809261309c601f1991610e8a565b15613b6a57565b60405162461bcd60e51b815260206004820152601b60248201527a125b9cdd59999a58da595b9d08199d5b991cc81c1c9bdd9a591959602a1b6044820152606490fd5b15613bb457565b60405162461bcd60e51b8152602060048201526013602482015272746865206c6f616e206e6f742075706461746560681b6044820152606490fd5b929192613bff826104b083610c93565b613c0883610b92565b90613c1860028201544214613bad565b600191828201928354808910600014613c8e575050613c38878454612c3f565b83555b8254825490818110613c66575b505050505415613c56575050565b6103a6916104b061079e92610c93565b613c75600491613c7f93612c3f565b9201918254612c3f565b90558154905538808080613c48565b909695949392919750966000835586600060078301915b613cb8575b505090919293949550613c3b565b815480821015613d1f57613ccf6106f38385612c71565b6001600160a01b03888116911614613cf15750613ceb90612c4c565b88613ca5565b613d1293949596979899509061077561076e6106f361076861079495612c13565b9085949392913880613caa565b50613caa565b15613d2c57565b60405162461bcd60e51b815260206004820152600f60248201526e6c6f616e206e6f742075706461746560881b6044820152606490fd5b90918015613e0357613dd89060018060a01b0383166000526001602052613d97613d91856040600020610bac565b94610b92565b9360046002820195865480613df2575b506001830195865415613ddf575b5001613dc2838254612705565b9055613dcf828254612705565b90558254612705565b9055429055565b613dec9060078301612cd1565b38613db5565b613dfd904214613d25565b38613da7565b505050565b6001600160401b038116600090815260208190526040812090929190600701835b8154851015613e7057613e5783613e408785612c71565b905460039190911b1c6001600160a01b0316613eaa565b8101809111610aca57613e6a9094612c4c565b93613e29565b93505050565b908160209103126102ac575190565b909493620f42409360809360a084019784526020840152604083015260608201520152565b91909160018060a01b03166000526001602052613ecb826040600020610bac565b60018101926020600285549301926002613ee6855494610b92565b015492613f0960405194859384936311930ad760e31b8552429160048601613e85565b038173__$48e8a9d9f2fc2da595c08074e18170a635$__5af490811561066457600091613f3a575b50809355429055565b613f5b915060203d8111613f61575b613f5381836108c5565b810190613e76565b38613f31565b503d613f49565b91613f7a620f42409160055490611e4e565b049182820392828411610aca57600093849384938493849214613faa575b6001600160a01b031690f11561066457565b6108fc9150613f98565b91909160018060a01b03166000526001602052613fd5826040600020610bac565b91602060018401546002613fec8187015494610b92565b01549261400f60405194859384936311930ad760e31b8552429160048601613e85565b038173__$48e8a9d9f2fc2da595c08074e18170a635$__5af49081156106645760009161403d575b50915490565b614055915060203d8111613f6157613f5381836108c5565b38614037565b9060405191828154918282526020928383019160005283600020936000905b828210614090575050506103a6925003836108c5565b85546001600160a01b03168452600195860195889550938101939091019061407a565b156140ba57565b60405162461bcd60e51b815260206004820152601760248201527613db9b1e48199bdd5b99185d1a5bdb88185b1b1bddd959604a1b6044820152606490fd5b1561410057565b60405162461bcd60e51b8152602060048201526011602482015270496e707574206973206e6567617469766560781b6044820152606490fd5b604051906141468261088f565b6000825260208201600081526020820151151581526020825151116141b95761418a61418e9161419393518051908115600014614197575050600085525b51151590565b1590565b6140f9565b5190565b6141ac6141a66141b1926141ef565b92612c22565b611e20565b1c8552614184565b60405162461bcd60e51b815260206004820152600e60248201526d4c656e677468206578636565647360901b6044820152606490fd5b602081519101519060208110614203575090565b6000199060200360031b1b1690565b61421a612f5f565b50604051906020820152602081526142318161088f565b604051906132bd8261088f565b600060405161424c816108aa565b5260018060401b03166729a2241af62c000090818102918183041481151715610aca578061427991611e4e565b8101809111610aca576040519061428f826108aa565b815290565b6000604051916142a38361088f565b6142bf6142ae612f5f565b9182855260208501928484526142c4565b505290565b906142cd612f5f565b50601f8116806142fc575b50806020830152604051908183526000825281016020019081106102ac5760405290565b60200360208111610aca578101809111610aca57386142d8565b602081015161432457515190565b60405162461bcd60e51b815260206004820152600c60248201526b24b73b30b634b21021a127a960a11b6044820152606490fd5b815161439c9291906001600160401b038116906017821161439f576143879150604060ff8451921617906147ab565b505b5190614393612f5f565b508051916144de565b50565b5060ff81116143c4576143be906143b68351614746565b508251614968565b50614389565b61ffff81116143e3576143be906143db83516146e1565b5082516148fa565b63ffffffff8111614404576143be906143fc835161467c565b50825161488a565b6143be90614412835161460c565b508251614816565b90614423612f5f565b50805161442e612f5f565b5061443c82518211156144d7565b8251519161444a8284612705565b60209182918287015181116144c0575b8651838151978201019682116144b8575b505001915b818110156144925760001991036101000a019081199051169082511617905290565b91926144ad6144a76144b392865181526126e9565b946126e9565b92612c30565b614470565b52388061446b565b6144d26144cc82611e38565b8861457e565b61445a565b156102ac57565b916144e7612f5f565b506144f582518211156144d7565b825151916145038284612705565b602091829182870151811161456d575b865183815197820101968211614565575b505001915b8181101561454b5760001991036101000a019081199051169082511617905290565b91926144ad6144a761456092865181526126e9565b614529565b523880614524565b6145796144cc82611e38565b614513565b9061439c9161458f815192826142c4565b5061441a565b5161459e612f5f565b508051516001810191828211610aca5760208101518210156145d5575b6020608191519283010153805182116145d2575050565b52565b8260011b83810460021484151715610aca57816146036020926145fc6081955191846142c4565b508261441a565b509150506145bb565b614614612f5f565b508051516001810190818111610aca57602083015181101561464d575b605b6020845192830101538051821161464957505090565b5290565b8160011b82810460021483151715610aca576146769061466f855191866142c4565b508461441a565b50614631565b614684612f5f565b508051516001810190818111610aca5760208301518110156146b9575b605a6020845192830101538051821161464957505090565b8160011b82810460021483151715610aca576146db9061466f855191866142c4565b506146a1565b6146e9612f5f565b508051516001810190818111610aca57602083015181101561471e575b60596020845192830101538051821161464957505090565b8160011b82810460021483151715610aca576147409061466f855191866142c4565b50614706565b61474e612f5f565b508051516001810190818111610aca576020830151811015614783575b60586020845192830101538051821161464957505090565b8160011b82810460021483151715610aca576147a59061466f855191866142c4565b5061476b565b906147b4612f5f565b508151516001810191828211610aca5760208401518210156147e7575b6020845192830101538051821161464957505090565b8260011b83810460021484151715610aca5761481090614809865191876142c4565b508561441a565b506147d1565b9061481f612f5f565b50815151806008019182600811610aca5760208401518311614862575b835191820160080180516001600160401b03191690911790528051821161464957505090565b8260011b83810460021484151715610aca5761488490614809865191876142c4565b5061483c565b90614893612f5f565b50815151806004019182600411610aca57602084015183116148d2575b60048451928301019063ffffffff198251161790528051821161464957505090565b8260011b83810460021484151715610aca576148f490614809865191876142c4565b506148b0565b90614903612f5f565b50815151806002019182600211610aca5760208401518311614940575b60028451928301019061ffff198251161790528051821161464957505090565b8260011b83810460021484151715610aca5761496290614809865191876142c4565b50614920565b90614971612f5f565b50815151806001019182600111610aca57602084015183116149ad575b60018451928301019060ff198251161790528051821161464957505090565b8260011b83810460021484151715610aca576149cf90614809865191876142c4565b5061498e56fe4e6577206d6178206465627420616d6f756e7420736d616c6c6572207468616eab0db1b1cde9b36df7716d6f870316939ac161ec4b413ad336cd02bfa76fac2d3660892062bf836f5e659c6ea522e4da733b1363f1e4c56230234c8b368679cb8ce52654b75658f1336fb44a2820fd74091d29ed6a345edc55f92a54bcb13b68a41d32ef10933174fe4b677b860fb3c2f301c3551af7d630dfbc7a885e74873b25a15986b0a7a765f8a909738dbf1cd6e2114f40758e80b8fb74a27999c3320e26280dacab52d272191171a53e64da1912f7ac6c5474f4efe3deeb17573abac5f946308f0afdb776205d3f2b12b3d4e91c28355d903aa6e418b1485ea5f60984a2646970667358221220989957037b51000e688690dc806d966c02d5ec8e8d210e089ef5ebcfbe809e8464736f6c63430008140033",
  "linkReferences": {
    "contracts/utils/Common.sol": {
      "Common": [
        {
          "length": 20,
          "start": 16201
        },
        {
          "length": 20,
          "start": 16463
        }
      ]
    }
  },
  "deployedLinkReferences": {
    "contracts/utils/Common.sol": {
      "Common": [
        {
          "length": 20,
          "start": 16141
        },
        {
          "length": 20,
          "start": 16403
        }
      ]
    }
  }
}