{
  "_format": "hh-sol-artifact-1",
  "contractName": "LoanBeneficiary",
  "sourceName": "contracts/LoanBeneficiary.sol",
  "abi": [
    {
      "inputs": [
        {
          "internalType": "int256",
          "name": "errorCode",
          "type": "int256"
        }
      ],
      "name": "ActorError",
      "type": "error"
    },
    {
      "inputs": [],
      "name": "ActorNotFound",
      "type": "error"
    },
    {
      "inputs": [],
      "name": "FailToCallActor",
      "type": "error"
    },
    {
      "inputs": [
        {
          "internalType": "CommonTypes.FilActorId",
          "name": "actorId",
          "type": "uint64"
        }
      ],
      "name": "InvalidActorID",
      "type": "error"
    },
    {
      "inputs": [
        {
          "internalType": "uint64",
          "name": "",
          "type": "uint64"
        }
      ],
      "name": "InvalidCodec",
      "type": "error"
    },
    {
      "inputs": [],
      "name": "InvalidResponseLength",
      "type": "error"
    },
    {
      "inputs": [
        {
          "internalType": "uint256",
          "name": "balance",
          "type": "uint256"
        },
        {
          "internalType": "uint256",
          "name": "value",
          "type": "uint256"
        }
      ],
      "name": "NotEnoughBalance",
      "type": "error"
    },
    {
      "inputs": [],
      "name": "REQUIRED_EXPIRATION",
      "outputs": [
        {
          "internalType": "int64",
          "name": "",
          "type": "int64"
        }
      ],
      "stateMutability": "view",
      "type": "function"
    },
    {
      "inputs": [],
      "name": "REQUIRED_QUOTA",
      "outputs": [
        {
          "internalType": "uint256",
          "name": "",
          "type": "uint256"
        }
      ],
      "stateMutability": "view",
      "type": "function"
    },
    {
      "inputs": [
        {
          "internalType": "CommonTypes.FilActorId",
          "name": "minerId",
          "type": "uint64"
        }
      ],
      "name": "pledgeBeneficiary",
      "outputs": [],
      "stateMutability": "nonpayable",
      "type": "function"
    },
    {
      "inputs": [
        {
          "internalType": "CommonTypes.FilActorId",
          "name": "minerId",
          "type": "uint64"
        }
      ],
      "name": "releaseBeneficiary",
      "outputs": [],
      "stateMutability": "nonpayable",
      "type": "function"
    }
  ],
  "bytecode": "0x60808060405234610016576122f1908161001c8239f35b600080fdfe604060808152600436101561001357600080fd5b6000803560e01c91826301d394d81461005c57505080630d563156146100575780637ca0e6f0146100525763f75fcdb71461004d57600080fd5b610222565b6101ff565b6101c7565b346101ad57602090816003193601126101a9576101919161018c60043591610083836101b1565b61008c8361083b565b61015d828201916100c77c03b58e88c75313ec9d329eaaa18fb92f75215b170ff21f494c589c00006100c186865101516116d7565b1461028c565b6100fc6100e16100db898651015160070b90565b60070b90565b600781900b60016001603f1b03149081610194575b506102c8565b61010586610500565b5151875190816101188782019283610356565b039161012c601f19938481018352826103bb565b5190209151515190610154895191826101488982019586610356565b039081018352826103bb565b519020146103de565b5193845194610173828483015192015160070b90565b9261017c610425565b96875286015284019060070b9052565b610627565b80f35b436001600160401b039091161190508b6100f6565b8280fd5b5080fd5b6001600160401b038116036101c257565b600080fd5b346101c25760003660031901126101c25760206040517c03b58e88c75313ec9d329eaaa18fb92f75215b170ff21f494c589c00008152f35b346101c25760003660031901126101c25760405160016001603f1b038152602090f35b346101c25760203660031901126101c25761028a600435610242816101b1565b61024b81610500565b519060405161025981610380565b610261610bd9565b81526000602082015260405192610277846103a0565b8352602083015260006040830152610627565b005b1561029357565b60405162461bcd60e51b815260206004820152600d60248201526c496e76616c69642071756f746160981b6044820152606490fd5b156102cf57565b60405162461bcd60e51b8152602060048201526017602482015276496e76616c69642065787069726174696f6e2074696d6560481b6044820152606490fd5b60005b8381106103215750506000910152565b8181015183820152602001610311565b9060209161034a8151809281855285808601910161030e565b601f01601f1916010190565b906020610367928181520190610331565b90565b634e487b7160e01b600052604160045260246000fd5b604081019081106001600160401b0382111761039b57604052565b61036a565b606081019081106001600160401b0382111761039b57604052565b601f909101601f19168101906001600160401b0382119082101761039b57604052565b156103e557565b60405162461bcd60e51b81526020600482015260186024820152772132b732b334b1b4b0b93c9034b9903737ba1037bbb732b960411b6044820152606490fd5b60405190610432826103a0565b565b6040519061043282610380565b60405190602082016001600160401b0381118382101761039b5760405260608252565b6040519061047182610380565b8161047a610441565b81526020610486610441565b910152565b6001600160401b03811161039b57601f01601f191660200190565b604051602081016001600160401b0381118282101761039b5760405260008152906000368137565b906104d88261048b565b6104e560405191826103bb565b82815280926104f6601f199161048b565b0190602036910137565b610508610464565b506105116104a6565b906001600160401b0381166064811061060f57506005607f60991b01803f156105fd5760009261055061055e8594604051928391602083019586610e2f565b03601f1981018352826103bb565b51915af461056a610ee4565b90156105eb5761057990610f89565b610581610464565b906105a0600261059a610593846110c1565b9214610bbc565b8261113b565b835191909152607b60f91b6001600160f81b03196105be8385610ad4565b5116146105d8576105ce9161113b565b5060208201515290565b50506105e26104a6565b60208201515290565b604051638a7db5bf60e01b8152600490fd5b60405163064d954b60e41b8152600490fd5b6024906040519063a292827360e01b82526004820152fd5b90602081015161064061063b825151610a4b565b6104ce565b9060019081602082015115151460009060001461076c57508190600160f81b5b60001a61066c85610ab1565b53816000925b610722575b50505050816106fe6106f8610703936106f16106b26106a361069e6107099a995151611622565b610a96565b6106ac84611622565b90610aa4565b916106eb6106d96106d460408901956106ac6106cf885160070b90565b61165a565b6117de565b966106e388611ada565b5151876118a0565b856118a0565b5160070b90565b82610af4565b61185e565b90610d98565b5161071057565b604051630e74990760e01b8152600490fd5b815180518410156107665761075f91610759916107448660ff60f81b92610ad4565b511660001a6107538289610ad4565b53610ae5565b92610ae5565b9183610672565b50610677565b908291610660565b6040519061078182610380565b6000602083606081520152565b604090815161079c81610380565b80928051916107aa83610380565b6107b2610441565b835281516001600160401b039390606081018581118282101761039b5784526107d9610774565b81526107e3610774565b60208201526000848201526020820152815281519260a08401908482109082111761039b578260009160209452610818610441565b8552610822610774565b8486015284015260006060840152600060808401520152565b6108569061084761078e565b506108506104a6565b90610df1565b6108ff61086161078e565b916108ec6108c96108a860036108a261059361089760026108916105938261088b6105938d6110c1565b8b61112c565b8861113b565b908a5151528761112c565b8461113b565b815190919015610a0e576108bb90610c1f565b602087510151525b8361113b565b8151909190156109e5576108dc90610c1f565b6020808751015101525b82610cf9565b92906040602086510151019060070b9052565b610921607b60f91b6001600160f81b031961091a8585610ad4565b5116141590565b61092a57505090565b60806109b46109af836109a161099b61098c61095a60056109546105936103679c61096c9c61112c565b8561113b565b60208c9a929a01998a5151528561113b565b8151909190156109bf5761097f90610c1f565b60208a5101525b84610cf9565b919060408951019060070b9052565b82611032565b929060608751019015159052565b611032565b509151019015159052565b506109c86104a6565b6109d0610434565b9081526000602082015260208a510152610986565b506109ee6104a6565b6109f6610434565b908152600060208201526020808751015101526108e6565b50610a176104a6565b610a1f610434565b90815260006020820152602087510151526108c3565b634e487b7160e01b600052601160045260246000fd5b9060018201809211610a5957565b610a35565b9060028201809211610a5957565b9060048201809211610a5957565b9060088201809211610a5957565b9060208201809211610a5957565b6001019081600111610a5957565b91908201809211610a5957565b805115610abe5760200190565b634e487b7160e01b600052603260045260246000fd5b908151811015610abe570160200190565b6000198114610a595760010190565b90600781900b60008112610b185750610432916001600160401b0390911690611b51565b610b229150611639565b6001600160401b03811660178111610b4a5750602060ff610b47935192161790612091565b50565b905060ff8111610b695781610b62610b479351611d04565b505161224e565b61ffff8111610b875781610b80610b479351611c9f565b50516121e0565b63ffffffff8111610ba75781610ba0610b479351611c3a565b5051612170565b81610bb5610b479351611bca565b50516120fc565b15610bc357565b634e487b7160e01b600052600160045260246000fd5b60405190610be682610380565b6001825260006020830152565b600019810191908211610a5957565b6020039060208211610a5957565b601f19810191908211610a5957565b610c27610774565b50805115610cdc57610c3c61063b8251610bf3565b906000908190600160f81b6001600160f81b0319610c6a610c5c84610ab1565b516001600160f81b03191690565b1614610cd3575b60019081805b610c98575b5050505061036790610c8c610434565b92835215156020830152565b8151811015610cce5780610cb2610c5c610cc89385610ad4565b610753610cbe83610bf3565b91871a9189610ad4565b82610c77565b610c7c565b60019250610c71565b50610ce5610434565b610ced610bd9565b81526000602082015290565b60ff9291610d069161139a565b9390911660018114908115610d8f575b5015610d2c576001600160401b031660070b9190565b60405162461bcd60e51b815260206004820152603560248201527f696e76616c6964206d616a20286578706563746564204d616a5369676e6564496044820152746e74206f72204d616a556e7369676e6564496e742960581b6064820152608490fd5b90501538610d16565b6001600160401b0381166064811061060f57506005607f60991b01803f156105fd57600092610550610dd68594604051928391602083019586610e76565b51915af4610de2610ee4565b90156105eb5761036790610f89565b6001600160401b0381166064811061060f57506005607f60991b01803f156105fd57600092610550610dd68594604051928391602083019586610ead565b90610e6660a09194939463c33a1cc6845260006020850152600160408501526000606085015260c0608085015260c0840190610331565b6001600160401b03909416910152565b90610e6660a091949394635d9dfc2c845260006020850152600060408501526051606085015260c0608085015260c0840190610331565b90610e6660a09194939463f7e4e299845260006020850152600160408501526000606085015260c0608085015260c0840190610331565b3d15610f0f573d90610ef58261048b565b91610f0360405193846103bb565b82523d6000602084013e565b606090565b90916060828403126101c2578151926020830151610f31816101b1565b604084015190936001600160401b0382116101c2570181601f820112156101c2578051610f5d8161048b565b92610f6b60405194856103bb565b818452602082840101116101c257610367916020808501910161030e565b610f9c9060208082518301019101610f14565b91906001600160401b03811680610fd95750508151610710575b80610fbf575090565b60405163d4bb667160e01b81526004810191909152602490fd5b60518114908115611027575b501561100457508151610fb657604051630e74990760e01b8152600490fd5b60405163f1f6bced60e01b81526001600160401b03919091166004820152602490fd5b607191501438610fe5565b6110416007939260ff9261139a565b946001600160401b03909116929091160361107c57806015601492148015611073575b61106d90610bbc565b14159190565b50808214611064565b60405162461bcd60e51b815260206004820152601f60248201527f696e76616c6964206d616a20286578706563746564204d616a4f7468657229006044820152606490fd5b9060ff6110cf6004936112ea565b949192909216036110e7576001600160401b03169190565b60405162461bcd60e51b815260206004820152601f60248201527f696e76616c6964206d616a20286578706563746564204d616a417272617929006044820152606490fd5b6110cf6004939260ff9261139a565b916111486000928461139a565b908160ff60018060401b038093169416600681148091811561124a575b50156111ee576111c7575b505061117c8282610aa4565b611185836104ce565b948083915b8383106111a1575050505061036792939450610aa4565b6107596111c1916111b5610c5c868d610ad4565b841a610753828c610ad4565b9161118a565b60ff93506111e79192506111dd6002918861139a565b9416941614610bbc565b3880611170565b60405162461bcd60e51b815260206004820152602e60248201527f696e76616c6964206d616a20286578706563746564204d616a546167206f722060448201526d4d616a42797465537472696e672960901b6064820152608490fd5b600291501438611165565b1561125c57565b60405162461bcd60e51b815260206004820152602560248201527f63616e6e6f742068616e646c6520686561646572732077697468206578747261604482015264203e20323760d81b6064820152608490fd5b156112b657565b60405162461bcd60e51b815260206004820152600c60248201526b34b73b30b634b21031b137b960a11b6044820152606490fd5b906112f4826114b6565b91601f60078460051c16931661130c601c8210611255565b601881106113935760188114611371576019811461135d57601a8114611347579061133c601b6113419314610bbc565b6115a2565b90600990565b5061135663ffffffff91611562565b1690600590565b5061136a61ffff91611522565b1690600390565b5061137d60ff916114d5565b169161138c60188410156112af565b9190600290565b9160019150565b90916113af6113a984846114f7565b93610a4b565b91601f60078560051c1694166113c7601c8210611255565b6018811061146d57601881146114485790816019859695931461143157601a8114611411579161140591611400601b61140b9514610bbc565b6115bb565b93610a7a565b91929190565b5061142463ffffffff9261142a9261157b565b94610a6c565b9293169190565b5061144261ffff9261142a9261153b565b94610a5e565b506114586113a98460ff936114f7565b92169261146860188510156112af565b929190565b92919050565b1561147a57565b60405162461bcd60e51b8152602060048201526014602482015273736c6963696e67206f7574206f662072616e676560601b6044820152606490fd5b6114c4600182511015611473565b805115610abe576020015160f81c90565b6114e3600282511015611473565b805160011015610abe576021015160f81c90565b908151916001820192838311610a595761151b93611516911015611473565b610ad4565b5160f81c90565b602190611533600382511015611473565b015160f01c90565b908151916002820192838311610a5957602093611559911015611473565b01015160f01c90565b602190611573600582511015611473565b015160e01c90565b908151916004820192838311610a5957602093611599911015611473565b01015160e01c90565b6021906115b3600982511015611473565b015160c01c90565b908151916008820192838311610a59576020936115d9911015611473565b01015160c01c90565b601781116115f05750600190565b60ff81116115fe5750600290565b61ffff811161160d5750600390565b63ffffffff101561161d57600990565b600590565b5161162c816115e2565b908101809111610a595790565b60070b199060016001603f1b0319821260016001603f1b03831317610a5957565b600781900b6000811261167a5750610367906001600160401b03166115e2565b61036791506001600160401b039061169190611639565b166115e2565b1561169e57565b60405162461bcd60e51b8152602060048201526011602482015270496e707574206973206e6567617469766560781b6044820152606490fd5b604051906116e482610380565b6000825260208201600081526020820151151581526020825151116117575761172861172c9161173193518051908115600014611735575050600085525b51151590565b1590565b611697565b5190565b61174a61174461174f9261178d565b92610c02565b6117b0565b1c8552611722565b60405162461bcd60e51b815260206004820152600e60248201526d4c656e677468206578636565647360901b6044820152606490fd5b6020815191015190602081106117a1575090565b6000199060200360031b1b1690565b600381901b91906001600160fd1b03811603610a5957565b908160011b9180830460021490151715610a5957565b6000604051916117ed83610380565b6118096117f8610774565b91828552602085019284845261180e565b505290565b90611817610774565b50601f811680611846575b50806020830152604051908183526000825281016020019081106101c25760405290565b61184f90610c02565b8101809111610a595738611822565b602081015161186c57515190565b60405162461bcd60e51b815260206004820152600c60248201526b24b73b30b634b21021a127a960a11b6044820152606490fd5b8151610b479291906001600160401b03811690601782116118e4576118cf9150604060ff845192161790612091565b505b51906118db610774565b50805191611a23565b5060ff811161190957611903906118fb8351611e98565b50825161224e565b506118d1565b61ffff811161192857611903906119208351611e33565b5082516121e0565b63ffffffff811161194957611903906119418351611dce565b508251612170565b611903906119578351611d69565b5082516120fc565b90611968610774565b508051611973610774565b506119818251821115611a1c565b8251519161198f8284610aa4565b6020918291828701518111611a05575b8651838151978201019682116119fd575b505001915b818110156119d75760001991036101000a019081199051169082511617905290565b91926119f26119ec6119f89286518152610a88565b94610a88565b92610c10565b6119b5565b5238806119b0565b611a17611a11826117c8565b88611ac3565b61199f565b156101c257565b91611a2c610774565b50611a3a8251821115611a1c565b82515191611a488284610aa4565b6020918291828701518111611ab2575b865183815197820101968211611aaa575b505001915b81811015611a905760001991036101000a019081199051169082511617905290565b91926119f26119ec611aa59286518152610a88565b611a6e565b523880611a69565b611abe611a11826117c8565b611a58565b90610b4791611ad48151928261180e565b5061195f565b51611ae3610774565b508051516001810191828211610a59576020810151821015611b1a575b602060839151928301015380518211611b17575050565b52565b8260011b83810460021484151715610a595781611b48602092611b4160839551918461180e565b508261195f565b50915050611b00565b906001600160401b03811660178111611b74575060ff610b479251911690612091565b905060ff8111611b8c5781610b62610b47935161202c565b61ffff8111611ba35781610b80610b479351611fc7565b63ffffffff8111611bbc5781610ba0610b479351611f62565b81610bb5610b479351611efd565b611bd2610774565b508051516001810190818111610a59576020830151811015611c0b575b603b60208451928301015380518211611c0757505090565b5290565b8160011b82810460021483151715610a5957611c3490611c2d8551918661180e565b508461195f565b50611bef565b611c42610774565b508051516001810190818111610a59576020830151811015611c77575b603a60208451928301015380518211611c0757505090565b8160011b82810460021483151715610a5957611c9990611c2d8551918661180e565b50611c5f565b611ca7610774565b508051516001810190818111610a59576020830151811015611cdc575b603960208451928301015380518211611c0757505090565b8160011b82810460021483151715610a5957611cfe90611c2d8551918661180e565b50611cc4565b611d0c610774565b508051516001810190818111610a59576020830151811015611d41575b603860208451928301015380518211611c0757505090565b8160011b82810460021483151715610a5957611d6390611c2d8551918661180e565b50611d29565b611d71610774565b508051516001810190818111610a59576020830151811015611da6575b605b60208451928301015380518211611c0757505090565b8160011b82810460021483151715610a5957611dc890611c2d8551918661180e565b50611d8e565b611dd6610774565b508051516001810190818111610a59576020830151811015611e0b575b605a60208451928301015380518211611c0757505090565b8160011b82810460021483151715610a5957611e2d90611c2d8551918661180e565b50611df3565b611e3b610774565b508051516001810190818111610a59576020830151811015611e70575b605960208451928301015380518211611c0757505090565b8160011b82810460021483151715610a5957611e9290611c2d8551918661180e565b50611e58565b611ea0610774565b508051516001810190818111610a59576020830151811015611ed5575b605860208451928301015380518211611c0757505090565b8160011b82810460021483151715610a5957611ef790611c2d8551918661180e565b50611ebd565b611f05610774565b508051516001810190818111610a59576020830151811015611f3a575b601b60208451928301015380518211611c0757505090565b8160011b82810460021483151715610a5957611f5c90611c2d8551918661180e565b50611f22565b611f6a610774565b508051516001810190818111610a59576020830151811015611f9f575b601a60208451928301015380518211611c0757505090565b8160011b82810460021483151715610a5957611fc190611c2d8551918661180e565b50611f87565b611fcf610774565b508051516001810190818111610a59576020830151811015612004575b601960208451928301015380518211611c0757505090565b8160011b82810460021483151715610a595761202690611c2d8551918661180e565b50611fec565b612034610774565b508051516001810190818111610a59576020830151811015612069575b601860208451928301015380518211611c0757505090565b8160011b82810460021483151715610a595761208b90611c2d8551918661180e565b50612051565b9061209a610774565b508151516001810191828211610a595760208401518210156120cd575b60208451928301015380518211611c0757505090565b8260011b83810460021484151715610a59576120f6906120ef8651918761180e565b508561195f565b506120b7565b90612105610774565b50815151806008019182600811610a595760208401518311612148575b835191820160080180516001600160401b031916909117905280518211611c0757505090565b8260011b83810460021484151715610a595761216a906120ef8651918761180e565b50612122565b90612179610774565b50815151806004019182600411610a5957602084015183116121b8575b60048451928301019063ffffffff1982511617905280518211611c0757505090565b8260011b83810460021484151715610a59576121da906120ef8651918761180e565b50612196565b906121e9610774565b50815151806002019182600211610a595760208401518311612226575b60028451928301019061ffff1982511617905280518211611c0757505090565b8260011b83810460021484151715610a5957612248906120ef8651918761180e565b50612206565b90612257610774565b50815151806001019182600111610a595760208401518311612293575b60018451928301019060ff1982511617905280518211611c0757505090565b8260011b83810460021484151715610a59576122b5906120ef8651918761180e565b5061227456fea2646970667358221220e623554562a92b35428bbafad7f72fd76ac9a49bbfbb7d8cf8814615b1331bfe64736f6c63430008140033",
  "linkReferences": {},
  "deployedLinkReferences": {}
}